{"project/contracts/Ecdsa.sol":{"Ecdsa":{"abi":[{"inputs":[{"internalType":"address","name":"expectedSigner","type":"address"},{"internalType":"uint8","name":"v","type":"uint8"},{"internalType":"bytes32","name":"m","type":"bytes32"},{"internalType":"bytes32","name":"r","type":"bytes32"},{"internalType":"bytes32","name":"s","type":"bytes32"}],"name":"measureVerify","outputs":[{"internalType":"uint256","name":"cold","type":"uint256"},{"internalType":"uint256","name":"warm","type":"uint256"}],"stateMutability":"view","type":"function"},{"inputs":[{"internalType":"address","name":"expectedSigner","type":"address"},{"internalType":"bytes32","name":"m","type":"bytes32"},{"internalType":"bytes32","name":"r","type":"bytes32"},{"internalType":"bytes32","name":"s","type":"bytes32"}],"name":"verifyHash","outputs":[{"internalType":"bool","name":"","type":"bool"}],"stateMutability":"pure","type":"function"},{"inputs":[{"internalType":"address","name":"expectedSigner","type":"address"},{"internalType":"uint8","name":"v","type":"uint8"},{"internalType":"bytes32","name":"m","type":"bytes32"},{"internalType":"bytes32","name":"r","type":"bytes32"},{"internalType":"bytes32","name":"s","type":"bytes32"}],"name":"verifyPersonalSign","outputs":[{"internalType":"bool","name":"","type":"bool"}],"stateMutability":"pure","type":"function"},{"inputs":[{"internalType":"address","name":"expectedSigner","type":"address"},{"internalType":"bytes32","name":"domainSeparator","type":"bytes32"},{"internalType":"bytes32","name":"structHash","type":"bytes32"},{"internalType":"bytes32","name":"r","type":"bytes32"},{"internalType":"bytes32","name":"s","type":"bytes32"}],"name":"verifyTypedData","outputs":[{"internalType":"bool","name":"","type":"bool"}],"stateMutability":"pure","type":"function"}],"evm":{"bytecode":{"linkReferences":{},"object":"6080604052348015600e575f5ffd5b50610b0c8061001c5f395ff3fe608060405234801561000f575f5ffd5b506004361061004a575f3560e01c806325b5db331461004e5780635d96a77d1461007e578063711e0918146100ae57806383203306146100df575b5f5ffd5b61006860048036038101906100639190610581565b61010f565b6040516100759190610612565b60405180910390f35b61009860048036038101906100939190610661565b610135565b6040516100a59190610612565b60405180910390f35b6100c860048036038101906100c39190610661565b61015b565b6040516100d69291906106f0565b60405180910390f35b6100f960048036038101906100f49190610717565b610218565b6040516101069190610612565b60405180910390f35b5f5f61011b868661022f565b905061012987828686610261565b91505095945050505050565b5f5f610140856103d6565b905061014f8787838787610405565b91505095945050505050565b5f5f5f5a905061016e8888888888610135565b6101ad576040517f08c379a00000000000000000000000000000000000000000000000000000000081526004016101a4906107d5565b60405180910390fd5b5f5a90506101be8989898989610135565b6101fd576040517f08c379a00000000000000000000000000000000000000000000000000000000081526004016101f49061083d565b60405180910390fd5b5f5a9050818303945080820393505050509550959350505050565b5f61022585858585610261565b9050949350505050565b5f82826040516020016102439291906108cf565b60405160208183030381529060405280519060200120905092915050565b5f5f835f1c90505f835f1c90505f82148061027b57505f81145b806102a557507f7fffffffffffffffffffffffffffffff5d576e7357a4501ddfe92f46681b20a081115b156102b4575f925050506103ce565b8673ffffffffffffffffffffffffffffffffffffffff16600187601b88886040515f81526020016040526040516102ee9493929190610956565b6020604051602081039080840390855afa15801561030e573d5f5f3e3d5ffd5b5050506020604051035173ffffffffffffffffffffffffffffffffffffffff160361033e576001925050506103ce565b8673ffffffffffffffffffffffffffffffffffffffff16600187601c88886040515f815260200160405260405161037894939291906109d2565b6020604051602081039080840390855afa158015610398573d5f5f3e3d5ffd5b5050506020604051035173ffffffffffffffffffffffffffffffffffffffff16036103c8576001925050506103ce565b5f925050505b949350505050565b5f816040516020016103e89190610a5f565b604051602081830303815290604052805190602001209050919050565b5f5f835f1c90505f835f1c90505f82148061041f57505f81145b8061044957507f7fffffffffffffffffffffffffffffff5d576e7357a4501ddfe92f46681b20a081115b15610458575f925050506104e7565b8773ffffffffffffffffffffffffffffffffffffffff166001878988886040515f81526020016040526040516104919493929190610a93565b6020604051602081039080840390855afa1580156104b1573d5f5f3e3d5ffd5b5050506020604051035173ffffffffffffffffffffffffffffffffffffffff16036104e1576001925050506104e7565b5f925050505b95945050505050565b5f5ffd5b5f73ffffffffffffffffffffffffffffffffffffffff82169050919050565b5f61051d826104f4565b9050919050565b61052d81610513565b8114610537575f5ffd5b50565b5f8135905061054881610524565b92915050565b5f819050919050565b6105608161054e565b811461056a575f5ffd5b50565b5f8135905061057b81610557565b92915050565b5f5f5f5f5f60a0868803121561059a576105996104f0565b5b5f6105a78882890161053a565b95505060206105b88882890161056d565b94505060406105c98882890161056d565b93505060606105da8882890161056d565b92505060806105eb8882890161056d565b9150509295509295909350565b5f8115159050919050565b61060c816105f8565b82525050565b5f6020820190506106255f830184610603565b92915050565b5f60ff82169050919050565b6106408161062b565b811461064a575f5ffd5b50565b5f8135905061065b81610637565b92915050565b5f5f5f5f5f60a0868803121561067a576106796104f0565b5b5f6106878882890161053a565b95505060206106988882890161064d565b94505060406106a98882890161056d565b93505060606106ba8882890161056d565b92505060806106cb8882890161056d565b9150509295509295909350565b5f819050919050565b6106ea816106d8565b82525050565b5f6040820190506107035f8301856106e1565b61071060208301846106e1565b9392505050565b5f5f5f5f6080858703121561072f5761072e6104f0565b5b5f61073c8782880161053a565b945050602061074d8782880161056d565b935050604061075e8782880161056d565b925050606061076f8782880161056d565b91505092959194509250565b5f82825260208201905092915050565b7f636f6c64206661696c00000000000000000000000000000000000000000000005f82015250565b5f6107bf60098361077b565b91506107ca8261078b565b602082019050919050565b5f6020820190508181035f8301526107ec816107b3565b9050919050565b7f7761726d206661696c00000000000000000000000000000000000000000000005f82015250565b5f61082760098361077b565b9150610832826107f3565b602082019050919050565b5f6020820190508181035f8301526108548161081b565b9050919050565b5f81905092915050565b7f19010000000000000000000000000000000000000000000000000000000000005f82015250565b5f61089960028361085b565b91506108a482610865565b600282019050919050565b5f819050919050565b6108c96108c48261054e565b6108af565b82525050565b5f6108d98261088d565b91506108e582856108b8565b6020820191506108f582846108b8565b6020820191508190509392505050565b61090e8161054e565b82525050565b5f819050919050565b5f819050919050565b5f61094061093b61093684610914565b61091d565b61062b565b9050919050565b61095081610926565b82525050565b5f6080820190506109695f830187610905565b6109766020830186610947565b6109836040830185610905565b6109906060830184610905565b95945050505050565b5f819050919050565b5f6109bc6109b76109b284610999565b61091d565b61062b565b9050919050565b6109cc816109a2565b82525050565b5f6080820190506109e55f830187610905565b6109f260208301866109c3565b6109ff6040830185610905565b610a0c6060830184610905565b95945050505050565b7f19457468657265756d205369676e6564204d6573736167653a0a3332000000005f82015250565b5f610a49601c8361085b565b9150610a5482610a15565b601c82019050919050565b5f610a6982610a3d565b9150610a7582846108b8565b60208201915081905092915050565b610a8d8161062b565b82525050565b5f608082019050610aa65f830187610905565b610ab36020830186610a84565b610ac06040830185610905565b610acd6060830184610905565b9594505050505056fea2646970667358221220354a14f1daeb8178f0a357e0cdb597865bb2964da8cca9746384ea38a5aa56a064736f6c634300081d0033","opcodes":"PUSH1 0x80 PUSH1 0x40 MSTORE CALLVALUE DUP1 ISZERO PUSH1 0xE JUMPI PUSH0 PUSH0 REVERT JUMPDEST POP PUSH2 0xB0C DUP1 PUSH2 0x1C PUSH0 CODECOPY PUSH0 RETURN INVALID PUSH1 0x80 PUSH1 0x40 MSTORE CALLVALUE DUP1 ISZERO PUSH2 0xF JUMPI PUSH0 PUSH0 REVERT JUMPDEST POP PUSH1 0x4 CALLDATASIZE LT PUSH2 0x4A JUMPI PUSH0 CALLDATALOAD PUSH1 0xE0 SHR DUP1 PUSH4 0x25B5DB33 EQ PUSH2 0x4E JUMPI DUP1 PUSH4 0x5D96A77D EQ PUSH2 0x7E JUMPI DUP1 PUSH4 0x711E0918 EQ PUSH2 0xAE JUMPI DUP1 PUSH4 0x83203306 EQ PUSH2 0xDF JUMPI JUMPDEST PUSH0 PUSH0 REVERT JUMPDEST PUSH2 0x68 PUSH1 0x4 DUP1 CALLDATASIZE SUB DUP2 ADD SWAP1 PUSH2 0x63 SWAP2 SWAP1 PUSH2 0x581 JUMP JUMPDEST PUSH2 0x10F JUMP JUMPDEST PUSH1 0x40 MLOAD PUSH2 0x75 SWAP2 SWAP1 PUSH2 0x612 JUMP JUMPDEST PUSH1 0x40 MLOAD DUP1 SWAP2 SUB SWAP1 RETURN JUMPDEST PUSH2 0x98 PUSH1 0x4 DUP1 CALLDATASIZE SUB DUP2 ADD SWAP1 PUSH2 0x93 SWAP2 SWAP1 PUSH2 0x661 JUMP JUMPDEST PUSH2 0x135 JUMP JUMPDEST PUSH1 0x40 MLOAD PUSH2 0xA5 SWAP2 SWAP1 PUSH2 0x612 JUMP JUMPDEST PUSH1 0x40 MLOAD DUP1 SWAP2 SUB SWAP1 RETURN JUMPDEST PUSH2 0xC8 PUSH1 0x4 DUP1 CALLDATASIZE SUB DUP2 ADD SWAP1 PUSH2 0xC3 SWAP2 SWAP1 PUSH2 0x661 JUMP JUMPDEST PUSH2 0x15B JUMP JUMPDEST PUSH1 0x40 MLOAD PUSH2 0xD6 SWAP3 SWAP2 SWAP1 PUSH2 0x6F0 JUMP JUMPDEST PUSH1 0x40 MLOAD DUP1 SWAP2 SUB SWAP1 RETURN JUMPDEST PUSH2 0xF9 PUSH1 0x4 DUP1 CALLDATASIZE SUB DUP2 ADD SWAP1 PUSH2 0xF4 SWAP2 SWAP1 PUSH2 0x717 JUMP JUMPDEST PUSH2 0x218 JUMP JUMPDEST PUSH1 0x40 MLOAD PUSH2 0x106 SWAP2 SWAP1 PUSH2 0x612 JUMP JUMPDEST PUSH1 0x40 MLOAD DUP1 SWAP2 SUB SWAP1 RETURN JUMPDEST PUSH0 PUSH0 PUSH2 0x11B DUP7 DUP7 PUSH2 0x22F JUMP JUMPDEST SWAP1 POP PUSH2 0x129 DUP8 DUP3 DUP7 DUP7 PUSH2 0x261 JUMP JUMPDEST SWAP2 POP POP SWAP6 SWAP5 POP POP POP POP POP JUMP JUMPDEST PUSH0 PUSH0 PUSH2 0x140 DUP6 PUSH2 0x3D6 JUMP JUMPDEST SWAP1 POP PUSH2 0x14F DUP8 DUP8 DUP4 DUP8 DUP8 PUSH2 0x405 JUMP JUMPDEST SWAP2 POP POP SWAP6 SWAP5 POP POP POP POP POP JUMP JUMPDEST PUSH0 PUSH0 PUSH0 GAS SWAP1 POP PUSH2 0x16E DUP9 DUP9 DUP9 DUP9 DUP9 PUSH2 0x135 JUMP JUMPDEST PUSH2 0x1AD JUMPI PUSH1 0x40 MLOAD PUSH32 0x8C379A000000000000000000000000000000000000000000000000000000000 DUP2 MSTORE PUSH1 0x4 ADD PUSH2 0x1A4 SWAP1 PUSH2 0x7D5 JUMP JUMPDEST PUSH1 0x40 MLOAD DUP1 SWAP2 SUB SWAP1 REVERT JUMPDEST PUSH0 GAS SWAP1 POP PUSH2 0x1BE DUP10 DUP10 DUP10 DUP10 DUP10 PUSH2 0x135 JUMP JUMPDEST PUSH2 0x1FD JUMPI PUSH1 0x40 MLOAD PUSH32 0x8C379A000000000000000000000000000000000000000000000000000000000 DUP2 MSTORE PUSH1 0x4 ADD PUSH2 0x1F4 SWAP1 PUSH2 0x83D JUMP JUMPDEST PUSH1 0x40 MLOAD DUP1 SWAP2 SUB SWAP1 REVERT JUMPDEST PUSH0 GAS SWAP1 POP DUP2 DUP4 SUB SWAP5 POP DUP1 DUP3 SUB SWAP4 POP POP POP POP SWAP6 POP SWAP6 SWAP4 POP POP POP POP JUMP JUMPDEST PUSH0 PUSH2 0x225 DUP6 DUP6 DUP6 DUP6 PUSH2 0x261 JUMP JUMPDEST SWAP1 POP SWAP5 SWAP4 POP POP POP POP JUMP JUMPDEST PUSH0 DUP3 DUP3 PUSH1 0x40 MLOAD PUSH1 0x20 ADD PUSH2 0x243 SWAP3 SWAP2 SWAP1 PUSH2 0x8CF JUMP JUMPDEST PUSH1 0x40 MLOAD PUSH1 0x20 DUP2 DUP4 SUB SUB DUP2 MSTORE SWAP1 PUSH1 0x40 MSTORE DUP1 MLOAD SWAP1 PUSH1 0x20 ADD KECCAK256 SWAP1 POP SWAP3 SWAP2 POP POP JUMP JUMPDEST PUSH0 PUSH0 DUP4 PUSH0 SHR SWAP1 POP PUSH0 DUP4 PUSH0 SHR SWAP1 POP PUSH0 DUP3 EQ DUP1 PUSH2 0x27B JUMPI POP PUSH0 DUP2 EQ JUMPDEST DUP1 PUSH2 0x2A5 JUMPI POP PUSH32 0x7FFFFFFFFFFFFFFFFFFFFFFFFFFFFFFF5D576E7357A4501DDFE92F46681B20A0 DUP2 GT JUMPDEST ISZERO PUSH2 0x2B4 JUMPI PUSH0 SWAP3 POP POP POP PUSH2 0x3CE JUMP JUMPDEST DUP7 PUSH20 0xFFFFFFFFFFFFFFFFFFFFFFFFFFFFFFFFFFFFFFFF AND PUSH1 0x1 DUP8 PUSH1 0x1B DUP9 DUP9 PUSH1 0x40 MLOAD PUSH0 DUP2 MSTORE PUSH1 0x20 ADD PUSH1 0x40 MSTORE PUSH1 0x40 MLOAD PUSH2 0x2EE SWAP5 SWAP4 SWAP3 SWAP2 SWAP1 PUSH2 0x956 JUMP JUMPDEST PUSH1 0x20 PUSH1 0x40 MLOAD PUSH1 0x20 DUP2 SUB SWAP1 DUP1 DUP5 SUB SWAP1 DUP6 GAS STATICCALL ISZERO DUP1 ISZERO PUSH2 0x30E JUMPI RETURNDATASIZE PUSH0 PUSH0 RETURNDATACOPY RETURNDATASIZE PUSH0 REVERT JUMPDEST POP POP POP PUSH1 0x20 PUSH1 0x40 MLOAD SUB MLOAD PUSH20 0xFFFFFFFFFFFFFFFFFFFFFFFFFFFFFFFFFFFFFFFF AND SUB PUSH2 0x33E JUMPI PUSH1 0x1 SWAP3 POP POP POP PUSH2 0x3CE JUMP JUMPDEST DUP7 PUSH20 0xFFFFFFFFFFFFFFFFFFFFFFFFFFFFFFFFFFFFFFFF AND PUSH1 0x1 DUP8 PUSH1 0x1C DUP9 DUP9 PUSH1 0x40 MLOAD PUSH0 DUP2 MSTORE PUSH1 0x20 ADD PUSH1 0x40 MSTORE PUSH1 0x40 MLOAD PUSH2 0x378 SWAP5 SWAP4 SWAP3 SWAP2 SWAP1 PUSH2 0x9D2 JUMP JUMPDEST PUSH1 0x20 PUSH1 0x40 MLOAD PUSH1 0x20 DUP2 SUB SWAP1 DUP1 DUP5 SUB SWAP1 DUP6 GAS STATICCALL ISZERO DUP1 ISZERO PUSH2 0x398 JUMPI RETURNDATASIZE PUSH0 PUSH0 RETURNDATACOPY RETURNDATASIZE PUSH0 REVERT JUMPDEST POP POP POP PUSH1 0x20 PUSH1 0x40 MLOAD SUB MLOAD PUSH20 0xFFFFFFFFFFFFFFFFFFFFFFFFFFFFFFFFFFFFFFFF AND SUB PUSH2 0x3C8 JUMPI PUSH1 0x1 SWAP3 POP POP POP PUSH2 0x3CE JUMP JUMPDEST PUSH0 SWAP3 POP POP POP JUMPDEST SWAP5 SWAP4 POP POP POP POP JUMP JUMPDEST PUSH0 DUP2 PUSH1 0x40 MLOAD PUSH1 0x20 ADD PUSH2 0x3E8 SWAP2 SWAP1 PUSH2 0xA5F JUMP JUMPDEST PUSH1 0x40 MLOAD PUSH1 0x20 DUP2 DUP4 SUB SUB DUP2 MSTORE SWAP1 PUSH1 0x40 MSTORE DUP1 MLOAD SWAP1 PUSH1 0x20 ADD KECCAK256 SWAP1 POP SWAP2 SWAP1 POP JUMP JUMPDEST PUSH0 PUSH0 DUP4 PUSH0 SHR SWAP1 POP PUSH0 DUP4 PUSH0 SHR SWAP1 POP PUSH0 DUP3 EQ DUP1 PUSH2 0x41F JUMPI POP PUSH0 DUP2 EQ JUMPDEST DUP1 PUSH2 0x449 JUMPI POP PUSH32 0x7FFFFFFFFFFFFFFFFFFFFFFFFFFFFFFF5D576E7357A4501DDFE92F46681B20A0 DUP2 GT JUMPDEST ISZERO PUSH2 0x458 JUMPI PUSH0 SWAP3 POP POP POP PUSH2 0x4E7 JUMP JUMPDEST DUP8 PUSH20 0xFFFFFFFFFFFFFFFFFFFFFFFFFFFFFFFFFFFFFFFF AND PUSH1 0x1 DUP8 DUP10 DUP9 DUP9 PUSH1 0x40 MLOAD PUSH0 DUP2 MSTORE PUSH1 0x20 ADD PUSH1 0x40 MSTORE PUSH1 0x40 MLOAD PUSH2 0x491 SWAP5 SWAP4 SWAP3 SWAP2 SWAP1 PUSH2 0xA93 JUMP JUMPDEST PUSH1 0x20 PUSH1 0x40 MLOAD PUSH1 0x20 DUP2 SUB SWAP1 DUP1 DUP5 SUB SWAP1 DUP6 GAS STATICCALL ISZERO DUP1 ISZERO PUSH2 0x4B1 JUMPI RETURNDATASIZE PUSH0 PUSH0 RETURNDATACOPY RETURNDATASIZE PUSH0 REVERT JUMPDEST POP POP POP PUSH1 0x20 PUSH1 0x40 MLOAD SUB MLOAD PUSH20 0xFFFFFFFFFFFFFFFFFFFFFFFFFFFFFFFFFFFFFFFF AND SUB PUSH2 0x4E1 JUMPI PUSH1 0x1 SWAP3 POP POP POP PUSH2 0x4E7 JUMP JUMPDEST PUSH0 SWAP3 POP POP POP JUMPDEST SWAP6 SWAP5 POP POP POP POP POP JUMP JUMPDEST PUSH0 PUSH0 REVERT JUMPDEST PUSH0 PUSH20 0xFFFFFFFFFFFFFFFFFFFFFFFFFFFFFFFFFFFFFFFF DUP3 AND SWAP1 POP SWAP2 SWAP1 POP JUMP JUMPDEST PUSH0 PUSH2 0x51D DUP3 PUSH2 0x4F4 JUMP JUMPDEST SWAP1 POP SWAP2 SWAP1 POP JUMP JUMPDEST PUSH2 0x52D DUP2 PUSH2 0x513 JUMP JUMPDEST DUP2 EQ PUSH2 0x537 JUMPI PUSH0 PUSH0 REVERT JUMPDEST POP JUMP JUMPDEST PUSH0 DUP2 CALLDATALOAD SWAP1 POP PUSH2 0x548 DUP2 PUSH2 0x524 JUMP JUMPDEST SWAP3 SWAP2 POP POP JUMP JUMPDEST PUSH0 DUP2 SWAP1 POP SWAP2 SWAP1 POP JUMP JUMPDEST PUSH2 0x560 DUP2 PUSH2 0x54E JUMP JUMPDEST DUP2 EQ PUSH2 0x56A JUMPI PUSH0 PUSH0 REVERT JUMPDEST POP JUMP JUMPDEST PUSH0 DUP2 CALLDATALOAD SWAP1 POP PUSH2 0x57B DUP2 PUSH2 0x557 JUMP JUMPDEST SWAP3 SWAP2 POP POP JUMP JUMPDEST PUSH0 PUSH0 PUSH0 PUSH0 PUSH0 PUSH1 0xA0 DUP7 DUP9 SUB SLT ISZERO PUSH2 0x59A JUMPI PUSH2 0x599 PUSH2 0x4F0 JUMP JUMPDEST JUMPDEST PUSH0 PUSH2 0x5A7 DUP9 DUP3 DUP10 ADD PUSH2 0x53A JUMP JUMPDEST SWAP6 POP POP PUSH1 0x20 PUSH2 0x5B8 DUP9 DUP3 DUP10 ADD PUSH2 0x56D JUMP JUMPDEST SWAP5 POP POP PUSH1 0x40 PUSH2 0x5C9 DUP9 DUP3 DUP10 ADD PUSH2 0x56D JUMP JUMPDEST SWAP4 POP POP PUSH1 0x60 PUSH2 0x5DA DUP9 DUP3 DUP10 ADD PUSH2 0x56D JUMP JUMPDEST SWAP3 POP POP PUSH1 0x80 PUSH2 0x5EB DUP9 DUP3 DUP10 ADD PUSH2 0x56D JUMP JUMPDEST SWAP2 POP POP SWAP3 SWAP6 POP SWAP3 SWAP6 SWAP1 SWAP4 POP JUMP JUMPDEST PUSH0 DUP2 ISZERO ISZERO SWAP1 POP SWAP2 SWAP1 POP JUMP JUMPDEST PUSH2 0x60C DUP2 PUSH2 0x5F8 JUMP JUMPDEST DUP3 MSTORE POP POP JUMP JUMPDEST PUSH0 PUSH1 0x20 DUP3 ADD SWAP1 POP PUSH2 0x625 PUSH0 DUP4 ADD DUP5 PUSH2 0x603 JUMP JUMPDEST SWAP3 SWAP2 POP POP JUMP JUMPDEST PUSH0 PUSH1 0xFF DUP3 AND SWAP1 POP SWAP2 SWAP1 POP JUMP JUMPDEST PUSH2 0x640 DUP2 PUSH2 0x62B JUMP JUMPDEST DUP2 EQ PUSH2 0x64A JUMPI PUSH0 PUSH0 REVERT JUMPDEST POP JUMP JUMPDEST PUSH0 DUP2 CALLDATALOAD SWAP1 POP PUSH2 0x65B DUP2 PUSH2 0x637 JUMP JUMPDEST SWAP3 SWAP2 POP POP JUMP JUMPDEST PUSH0 PUSH0 PUSH0 PUSH0 PUSH0 PUSH1 0xA0 DUP7 DUP9 SUB SLT ISZERO PUSH2 0x67A JUMPI PUSH2 0x679 PUSH2 0x4F0 JUMP JUMPDEST JUMPDEST PUSH0 PUSH2 0x687 DUP9 DUP3 DUP10 ADD PUSH2 0x53A JUMP JUMPDEST SWAP6 POP POP PUSH1 0x20 PUSH2 0x698 DUP9 DUP3 DUP10 ADD PUSH2 0x64D JUMP JUMPDEST SWAP5 POP POP PUSH1 0x40 PUSH2 0x6A9 DUP9 DUP3 DUP10 ADD PUSH2 0x56D JUMP JUMPDEST SWAP4 POP POP PUSH1 0x60 PUSH2 0x6BA DUP9 DUP3 DUP10 ADD PUSH2 0x56D JUMP JUMPDEST SWAP3 POP POP PUSH1 0x80 PUSH2 0x6CB DUP9 DUP3 DUP10 ADD PUSH2 0x56D JUMP JUMPDEST SWAP2 POP POP SWAP3 SWAP6 POP SWAP3 SWAP6 SWAP1 SWAP4 POP JUMP JUMPDEST PUSH0 DUP2 SWAP1 POP SWAP2 SWAP1 POP JUMP JUMPDEST PUSH2 0x6EA DUP2 PUSH2 0x6D8 JUMP JUMPDEST DUP3 MSTORE POP POP JUMP JUMPDEST PUSH0 PUSH1 0x40 DUP3 ADD SWAP1 POP PUSH2 0x703 PUSH0 DUP4 ADD DUP6 PUSH2 0x6E1 JUMP JUMPDEST PUSH2 0x710 PUSH1 0x20 DUP4 ADD DUP5 PUSH2 0x6E1 JUMP JUMPDEST SWAP4 SWAP3 POP POP POP JUMP JUMPDEST PUSH0 PUSH0 PUSH0 PUSH0 PUSH1 0x80 DUP6 DUP8 SUB SLT ISZERO PUSH2 0x72F JUMPI PUSH2 0x72E PUSH2 0x4F0 JUMP JUMPDEST JUMPDEST PUSH0 PUSH2 0x73C DUP8 DUP3 DUP9 ADD PUSH2 0x53A JUMP JUMPDEST SWAP5 POP POP PUSH1 0x20 PUSH2 0x74D DUP8 DUP3 DUP9 ADD PUSH2 0x56D JUMP JUMPDEST SWAP4 POP POP PUSH1 0x40 PUSH2 0x75E DUP8 DUP3 DUP9 ADD PUSH2 0x56D JUMP JUMPDEST SWAP3 POP POP PUSH1 0x60 PUSH2 0x76F DUP8 DUP3 DUP9 ADD PUSH2 0x56D JUMP JUMPDEST SWAP2 POP POP SWAP3 SWAP6 SWAP2 SWAP5 POP SWAP3 POP JUMP JUMPDEST PUSH0 DUP3 DUP3 MSTORE PUSH1 0x20 DUP3 ADD SWAP1 POP SWAP3 SWAP2 POP POP JUMP JUMPDEST PUSH32 0x636F6C64206661696C0000000000000000000000000000000000000000000000 PUSH0 DUP3 ADD MSTORE POP JUMP JUMPDEST PUSH0 PUSH2 0x7BF PUSH1 0x9 DUP4 PUSH2 0x77B JUMP JUMPDEST SWAP2 POP PUSH2 0x7CA DUP3 PUSH2 0x78B JUMP JUMPDEST PUSH1 0x20 DUP3 ADD SWAP1 POP SWAP2 SWAP1 POP JUMP JUMPDEST PUSH0 PUSH1 0x20 DUP3 ADD SWAP1 POP DUP2 DUP2 SUB PUSH0 DUP4 ADD MSTORE PUSH2 0x7EC DUP2 PUSH2 0x7B3 JUMP JUMPDEST SWAP1 POP SWAP2 SWAP1 POP JUMP JUMPDEST PUSH32 0x7761726D206661696C0000000000000000000000000000000000000000000000 PUSH0 DUP3 ADD MSTORE POP JUMP JUMPDEST PUSH0 PUSH2 0x827 PUSH1 0x9 DUP4 PUSH2 0x77B JUMP JUMPDEST SWAP2 POP PUSH2 0x832 DUP3 PUSH2 0x7F3 JUMP JUMPDEST PUSH1 0x20 DUP3 ADD SWAP1 POP SWAP2 SWAP1 POP JUMP JUMPDEST PUSH0 PUSH1 0x20 DUP3 ADD SWAP1 POP DUP2 DUP2 SUB PUSH0 DUP4 ADD MSTORE PUSH2 0x854 DUP2 PUSH2 0x81B JUMP JUMPDEST SWAP1 POP SWAP2 SWAP1 POP JUMP JUMPDEST PUSH0 DUP2 SWAP1 POP SWAP3 SWAP2 POP POP JUMP JUMPDEST PUSH32 0x1901000000000000000000000000000000000000000000000000000000000000 PUSH0 DUP3 ADD MSTORE POP JUMP JUMPDEST PUSH0 PUSH2 0x899 PUSH1 0x2 DUP4 PUSH2 0x85B JUMP JUMPDEST SWAP2 POP PUSH2 0x8A4 DUP3 PUSH2 0x865 JUMP JUMPDEST PUSH1 0x2 DUP3 ADD SWAP1 POP SWAP2 SWAP1 POP JUMP JUMPDEST PUSH0 DUP2 SWAP1 POP SWAP2 SWAP1 POP JUMP JUMPDEST PUSH2 0x8C9 PUSH2 0x8C4 DUP3 PUSH2 0x54E JUMP JUMPDEST PUSH2 0x8AF JUMP JUMPDEST DUP3 MSTORE POP POP JUMP JUMPDEST PUSH0 PUSH2 0x8D9 DUP3 PUSH2 0x88D JUMP JUMPDEST SWAP2 POP PUSH2 0x8E5 DUP3 DUP6 PUSH2 0x8B8 JUMP JUMPDEST PUSH1 0x20 DUP3 ADD SWAP2 POP PUSH2 0x8F5 DUP3 DUP5 PUSH2 0x8B8 JUMP JUMPDEST PUSH1 0x20 DUP3 ADD SWAP2 POP DUP2 SWAP1 POP SWAP4 SWAP3 POP POP POP JUMP JUMPDEST PUSH2 0x90E DUP2 PUSH2 0x54E JUMP JUMPDEST DUP3 MSTORE POP POP JUMP JUMPDEST PUSH0 DUP2 SWAP1 POP SWAP2 SWAP1 POP JUMP JUMPDEST PUSH0 DUP2 SWAP1 POP SWAP2 SWAP1 POP JUMP JUMPDEST PUSH0 PUSH2 0x940 PUSH2 0x93B PUSH2 0x936 DUP5 PUSH2 0x914 JUMP JUMPDEST PUSH2 0x91D JUMP JUMPDEST PUSH2 0x62B JUMP JUMPDEST SWAP1 POP SWAP2 SWAP1 POP JUMP JUMPDEST PUSH2 0x950 DUP2 PUSH2 0x926 JUMP JUMPDEST DUP3 MSTORE POP POP JUMP JUMPDEST PUSH0 PUSH1 0x80 DUP3 ADD SWAP1 POP PUSH2 0x969 PUSH0 DUP4 ADD DUP8 PUSH2 0x905 JUMP JUMPDEST PUSH2 0x976 PUSH1 0x20 DUP4 ADD DUP7 PUSH2 0x947 JUMP JUMPDEST PUSH2 0x983 PUSH1 0x40 DUP4 ADD DUP6 PUSH2 0x905 JUMP JUMPDEST PUSH2 0x990 PUSH1 0x60 DUP4 ADD DUP5 PUSH2 0x905 JUMP JUMPDEST SWAP6 SWAP5 POP POP POP POP POP JUMP JUMPDEST PUSH0 DUP2 SWAP1 POP SWAP2 SWAP1 POP JUMP JUMPDEST PUSH0 PUSH2 0x9BC PUSH2 0x9B7 PUSH2 0x9B2 DUP5 PUSH2 0x999 JUMP JUMPDEST PUSH2 0x91D JUMP JUMPDEST PUSH2 0x62B JUMP JUMPDEST SWAP1 POP SWAP2 SWAP1 POP JUMP JUMPDEST PUSH2 0x9CC DUP2 PUSH2 0x9A2 JUMP JUMPDEST DUP3 MSTORE POP POP JUMP JUMPDEST PUSH0 PUSH1 0x80 DUP3 ADD SWAP1 POP PUSH2 0x9E5 PUSH0 DUP4 ADD DUP8 PUSH2 0x905 JUMP JUMPDEST PUSH2 0x9F2 PUSH1 0x20 DUP4 ADD DUP7 PUSH2 0x9C3 JUMP JUMPDEST PUSH2 0x9FF PUSH1 0x40 DUP4 ADD DUP6 PUSH2 0x905 JUMP JUMPDEST PUSH2 0xA0C PUSH1 0x60 DUP4 ADD DUP5 PUSH2 0x905 JUMP JUMPDEST SWAP6 SWAP5 POP POP POP POP POP JUMP JUMPDEST PUSH32 0x19457468657265756D205369676E6564204D6573736167653A0A333200000000 PUSH0 DUP3 ADD MSTORE POP JUMP JUMPDEST PUSH0 PUSH2 0xA49 PUSH1 0x1C DUP4 PUSH2 0x85B JUMP JUMPDEST SWAP2 POP PUSH2 0xA54 DUP3 PUSH2 0xA15 JUMP JUMPDEST PUSH1 0x1C DUP3 ADD SWAP1 POP SWAP2 SWAP1 POP JUMP JUMPDEST PUSH0 PUSH2 0xA69 DUP3 PUSH2 0xA3D JUMP JUMPDEST SWAP2 POP PUSH2 0xA75 DUP3 DUP5 PUSH2 0x8B8 JUMP JUMPDEST PUSH1 0x20 DUP3 ADD SWAP2 POP DUP2 SWAP1 POP SWAP3 SWAP2 POP POP JUMP JUMPDEST PUSH2 0xA8D DUP2 PUSH2 0x62B JUMP JUMPDEST DUP3 MSTORE POP POP JUMP JUMPDEST PUSH0 PUSH1 0x80 DUP3 ADD SWAP1 POP PUSH2 0xAA6 PUSH0 DUP4 ADD DUP8 PUSH2 0x905 JUMP JUMPDEST PUSH2 0xAB3 PUSH1 0x20 DUP4 ADD DUP7 PUSH2 0xA84 JUMP JUMPDEST PUSH2 0xAC0 PUSH1 0x40 DUP4 ADD DUP6 PUSH2 0x905 JUMP JUMPDEST PUSH2 0xACD PUSH1 0x60 DUP4 ADD DUP5 PUSH2 0x905 JUMP JUMPDEST SWAP6 SWAP5 POP POP POP POP POP JUMP INVALID LOG2 PUSH5 0x6970667358 0x22 SLT KECCAK256 CALLDATALOAD BLOBBASEFEE EQ CALL 0xDA 0xEB DUP2 PUSH25 0xF0A357E0CDB597865BB2964DA8CCA9746384EA38A5AA56A064 PUSH20 0x6F6C634300081D00330000000000000000000000 "},"methodIdentifiers":{"measureVerify(address,uint8,bytes32,bytes32,bytes32)":"711e0918","verifyHash(address,bytes32,bytes32,bytes32)":"83203306","verifyPersonalSign(address,uint8,bytes32,bytes32,bytes32)":"5d96a77d","verifyTypedData(address,bytes32,bytes32,bytes32,bytes32)":"25b5db33"}}}}}