{"project/contracts/Schnorr.sol":{"Schnorr":{"abi":[{"inputs":[],"name":"Q","outputs":[{"internalType":"uint256","name":"","type":"uint256"}],"stateMutability":"view","type":"function"},{"inputs":[{"internalType":"uint8","name":"parity","type":"uint8"},{"internalType":"bytes32","name":"px","type":"bytes32"},{"internalType":"bytes32","name":"message","type":"bytes32"},{"internalType":"bytes32","name":"e","type":"bytes32"},{"internalType":"bytes32","name":"s","type":"bytes32"}],"name":"measureVerify","outputs":[{"internalType":"uint256","name":"cold","type":"uint256"},{"internalType":"uint256","name":"warm","type":"uint256"}],"stateMutability":"nonpayable","type":"function"},{"inputs":[{"internalType":"uint8","name":"parity","type":"uint8"},{"internalType":"bytes32","name":"px","type":"bytes32"},{"internalType":"bytes32","name":"message","type":"bytes32"},{"internalType":"bytes32","name":"e","type":"bytes32"},{"internalType":"bytes32","name":"s","type":"bytes32"}],"name":"verify","outputs":[{"internalType":"bool","name":"","type":"bool"}],"stateMutability":"pure","type":"function"}],"evm":{"bytecode":{"linkReferences":{},"object":"6080604052348015600e575f5ffd5b506108688061001c5f395ff3fe608060405234801561000f575f5ffd5b506004361061003f575f3560e01c80637821ce4b146100435780639186da4c14610074578063e493ef8c146100a4575b5f5ffd5b61005d600480360381019061005891906103e4565b6100c2565b60405161006b929190610473565b60405180910390f35b61008e600480360381019061008991906103e4565b61017f565b60405161009b91906104b4565b60405180910390f35b6100ac610353565b6040516100b991906104cd565b60405180910390f35b5f5f5f5a90506100d5888888888861017f565b610114576040517f08c379a000000000000000000000000000000000000000000000000000000000815260040161010b90610540565b60405180910390fd5b5f5a9050610125898989898961017f565b610164576040517f08c379a000000000000000000000000000000000000000000000000000000000815260040161015b906105a8565b60405180910390fd5b5f5a9050818303945080820393505050509550959350505050565b5f5f7ffffffffffffffffffffffffffffffffebaaedce6af48a03bbfd25e8cd0364141806101b0576101af6105c6565b5b865f1c845f1c097ffffffffffffffffffffffffffffffffebaaedce6af48a03bbfd25e8cd03641416101e29190610620565b5f1b90505f7ffffffffffffffffffffffffffffffffebaaedce6af48a03bbfd25e8cd036414180610216576102156105c6565b5b875f1c865f1c097ffffffffffffffffffffffffffffffffebaaedce6af48a03bbfd25e8cd03641416102489190610620565b5f1b90505f5f1b8203610259575f5ffd5b5f6001838a8a856040515f815260200160405260405161027c9493929190610671565b6020604051602081039080840390855afa15801561029c573d5f5f3e3d5ffd5b5050506020604051035190505f73ffffffffffffffffffffffffffffffffffffffff168173ffffffffffffffffffffffffffffffffffffffff1603610316576040517f08c379a000000000000000000000000000000000000000000000000000000000815260040161030d906106fe565b60405180910390fd5b8089898960405160200161032d94939291906107e5565b604051602081830303815290604052805190602001208614935050505095945050505050565b7ffffffffffffffffffffffffffffffffebaaedce6af48a03bbfd25e8cd036414181565b5f5ffd5b5f60ff82169050919050565b6103908161037b565b811461039a575f5ffd5b50565b5f813590506103ab81610387565b92915050565b5f819050919050565b6103c3816103b1565b81146103cd575f5ffd5b50565b5f813590506103de816103ba565b92915050565b5f5f5f5f5f60a086880312156103fd576103fc610377565b5b5f61040a8882890161039d565b955050602061041b888289016103d0565b945050604061042c888289016103d0565b935050606061043d888289016103d0565b925050608061044e888289016103d0565b9150509295509295909350565b5f819050919050565b61046d8161045b565b82525050565b5f6040820190506104865f830185610464565b6104936020830184610464565b9392505050565b5f8115159050919050565b6104ae8161049a565b82525050565b5f6020820190506104c75f8301846104a5565b92915050565b5f6020820190506104e05f830184610464565b92915050565b5f82825260208201905092915050565b7f636f6c64206661696c00000000000000000000000000000000000000000000005f82015250565b5f61052a6009836104e6565b9150610535826104f6565b602082019050919050565b5f6020820190508181035f8301526105578161051e565b9050919050565b7f7761726d206661696c00000000000000000000000000000000000000000000005f82015250565b5f6105926009836104e6565b915061059d8261055e565b602082019050919050565b5f6020820190508181035f8301526105bf81610586565b9050919050565b7f4e487b71000000000000000000000000000000000000000000000000000000005f52601260045260245ffd5b7f4e487b71000000000000000000000000000000000000000000000000000000005f52601160045260245ffd5b5f61062a8261045b565b91506106358361045b565b925082820390508181111561064d5761064c6105f3565b5b92915050565b61065c816103b1565b82525050565b61066b8161037b565b82525050565b5f6080820190506106845f830187610653565b6106916020830186610662565b61069e6040830185610653565b6106ab6060830184610653565b95945050505050565b7f65637265636f766572206661696c6564000000000000000000000000000000005f82015250565b5f6106e86010836104e6565b91506106f3826106b4565b602082019050919050565b5f6020820190508181035f830152610715816106dc565b9050919050565b5f73ffffffffffffffffffffffffffffffffffffffff82169050919050565b5f6107458261071c565b9050919050565b5f8160601b9050919050565b5f6107628261074c565b9050919050565b5f61077382610758565b9050919050565b61078b6107868261073b565b610769565b82525050565b5f8160f81b9050919050565b5f6107a782610791565b9050919050565b6107bf6107ba8261037b565b61079d565b82525050565b5f819050919050565b6107df6107da826103b1565b6107c5565b82525050565b5f6107f0828761077a565b60148201915061080082866107ae565b60018201915061081082856107ce565b60208201915061082082846107ce565b6020820191508190509594505050505056fea264697066735822122055c1caaa37f5473897a679b68cc2fa9cac9f5e09920f97e666afb34bb783773a64736f6c634300081d0033","opcodes":"PUSH1 0x80 PUSH1 0x40 MSTORE CALLVALUE DUP1 ISZERO PUSH1 0xE JUMPI PUSH0 PUSH0 REVERT JUMPDEST POP PUSH2 0x868 DUP1 PUSH2 0x1C PUSH0 CODECOPY PUSH0 RETURN INVALID PUSH1 0x80 PUSH1 0x40 MSTORE CALLVALUE DUP1 ISZERO PUSH2 0xF JUMPI PUSH0 PUSH0 REVERT JUMPDEST POP PUSH1 0x4 CALLDATASIZE LT PUSH2 0x3F JUMPI PUSH0 CALLDATALOAD PUSH1 0xE0 SHR DUP1 PUSH4 0x7821CE4B EQ PUSH2 0x43 JUMPI DUP1 PUSH4 0x9186DA4C EQ PUSH2 0x74 JUMPI DUP1 PUSH4 0xE493EF8C EQ PUSH2 0xA4 JUMPI JUMPDEST PUSH0 PUSH0 REVERT JUMPDEST PUSH2 0x5D PUSH1 0x4 DUP1 CALLDATASIZE SUB DUP2 ADD SWAP1 PUSH2 0x58 SWAP2 SWAP1 PUSH2 0x3E4 JUMP JUMPDEST PUSH2 0xC2 JUMP JUMPDEST PUSH1 0x40 MLOAD PUSH2 0x6B SWAP3 SWAP2 SWAP1 PUSH2 0x473 JUMP JUMPDEST PUSH1 0x40 MLOAD DUP1 SWAP2 SUB SWAP1 RETURN JUMPDEST PUSH2 0x8E PUSH1 0x4 DUP1 CALLDATASIZE SUB DUP2 ADD SWAP1 PUSH2 0x89 SWAP2 SWAP1 PUSH2 0x3E4 JUMP JUMPDEST PUSH2 0x17F JUMP JUMPDEST PUSH1 0x40 MLOAD PUSH2 0x9B SWAP2 SWAP1 PUSH2 0x4B4 JUMP JUMPDEST PUSH1 0x40 MLOAD DUP1 SWAP2 SUB SWAP1 RETURN JUMPDEST PUSH2 0xAC PUSH2 0x353 JUMP JUMPDEST PUSH1 0x40 MLOAD PUSH2 0xB9 SWAP2 SWAP1 PUSH2 0x4CD JUMP JUMPDEST PUSH1 0x40 MLOAD DUP1 SWAP2 SUB SWAP1 RETURN JUMPDEST PUSH0 PUSH0 PUSH0 GAS SWAP1 POP PUSH2 0xD5 DUP9 DUP9 DUP9 DUP9 DUP9 PUSH2 0x17F JUMP JUMPDEST PUSH2 0x114 JUMPI PUSH1 0x40 MLOAD PUSH32 0x8C379A000000000000000000000000000000000000000000000000000000000 DUP2 MSTORE PUSH1 0x4 ADD PUSH2 0x10B SWAP1 PUSH2 0x540 JUMP JUMPDEST PUSH1 0x40 MLOAD DUP1 SWAP2 SUB SWAP1 REVERT JUMPDEST PUSH0 GAS SWAP1 POP PUSH2 0x125 DUP10 DUP10 DUP10 DUP10 DUP10 PUSH2 0x17F JUMP JUMPDEST PUSH2 0x164 JUMPI PUSH1 0x40 MLOAD PUSH32 0x8C379A000000000000000000000000000000000000000000000000000000000 DUP2 MSTORE PUSH1 0x4 ADD PUSH2 0x15B SWAP1 PUSH2 0x5A8 JUMP JUMPDEST PUSH1 0x40 MLOAD DUP1 SWAP2 SUB SWAP1 REVERT JUMPDEST PUSH0 GAS SWAP1 POP DUP2 DUP4 SUB SWAP5 POP DUP1 DUP3 SUB SWAP4 POP POP POP POP SWAP6 POP SWAP6 SWAP4 POP POP POP POP JUMP JUMPDEST PUSH0 PUSH0 PUSH32 0xFFFFFFFFFFFFFFFFFFFFFFFFFFFFFFFEBAAEDCE6AF48A03BBFD25E8CD0364141 DUP1 PUSH2 0x1B0 JUMPI PUSH2 0x1AF PUSH2 0x5C6 JUMP JUMPDEST JUMPDEST DUP7 PUSH0 SHR DUP5 PUSH0 SHR MULMOD PUSH32 0xFFFFFFFFFFFFFFFFFFFFFFFFFFFFFFFEBAAEDCE6AF48A03BBFD25E8CD0364141 PUSH2 0x1E2 SWAP2 SWAP1 PUSH2 0x620 JUMP JUMPDEST PUSH0 SHL SWAP1 POP PUSH0 PUSH32 0xFFFFFFFFFFFFFFFFFFFFFFFFFFFFFFFEBAAEDCE6AF48A03BBFD25E8CD0364141 DUP1 PUSH2 0x216 JUMPI PUSH2 0x215 PUSH2 0x5C6 JUMP JUMPDEST JUMPDEST DUP8 PUSH0 SHR DUP7 PUSH0 SHR MULMOD PUSH32 0xFFFFFFFFFFFFFFFFFFFFFFFFFFFFFFFEBAAEDCE6AF48A03BBFD25E8CD0364141 PUSH2 0x248 SWAP2 SWAP1 PUSH2 0x620 JUMP JUMPDEST PUSH0 SHL SWAP1 POP PUSH0 PUSH0 SHL DUP3 SUB PUSH2 0x259 JUMPI PUSH0 PUSH0 REVERT JUMPDEST PUSH0 PUSH1 0x1 DUP4 DUP11 DUP11 DUP6 PUSH1 0x40 MLOAD PUSH0 DUP2 MSTORE PUSH1 0x20 ADD PUSH1 0x40 MSTORE PUSH1 0x40 MLOAD PUSH2 0x27C SWAP5 SWAP4 SWAP3 SWAP2 SWAP1 PUSH2 0x671 JUMP JUMPDEST PUSH1 0x20 PUSH1 0x40 MLOAD PUSH1 0x20 DUP2 SUB SWAP1 DUP1 DUP5 SUB SWAP1 DUP6 GAS STATICCALL ISZERO DUP1 ISZERO PUSH2 0x29C JUMPI RETURNDATASIZE PUSH0 PUSH0 RETURNDATACOPY RETURNDATASIZE PUSH0 REVERT JUMPDEST POP POP POP PUSH1 0x20 PUSH1 0x40 MLOAD SUB MLOAD SWAP1 POP PUSH0 PUSH20 0xFFFFFFFFFFFFFFFFFFFFFFFFFFFFFFFFFFFFFFFF AND DUP2 PUSH20 0xFFFFFFFFFFFFFFFFFFFFFFFFFFFFFFFFFFFFFFFF AND SUB PUSH2 0x316 JUMPI PUSH1 0x40 MLOAD PUSH32 0x8C379A000000000000000000000000000000000000000000000000000000000 DUP2 MSTORE PUSH1 0x4 ADD PUSH2 0x30D SWAP1 PUSH2 0x6FE JUMP JUMPDEST PUSH1 0x40 MLOAD DUP1 SWAP2 SUB SWAP1 REVERT JUMPDEST DUP1 DUP10 DUP10 DUP10 PUSH1 0x40 MLOAD PUSH1 0x20 ADD PUSH2 0x32D SWAP5 SWAP4 SWAP3 SWAP2 SWAP1 PUSH2 0x7E5 JUMP JUMPDEST PUSH1 0x40 MLOAD PUSH1 0x20 DUP2 DUP4 SUB SUB DUP2 MSTORE SWAP1 PUSH1 0x40 MSTORE DUP1 MLOAD SWAP1 PUSH1 0x20 ADD KECCAK256 DUP7 EQ SWAP4 POP POP POP POP SWAP6 SWAP5 POP POP POP POP POP JUMP JUMPDEST PUSH32 0xFFFFFFFFFFFFFFFFFFFFFFFFFFFFFFFEBAAEDCE6AF48A03BBFD25E8CD0364141 DUP2 JUMP JUMPDEST PUSH0 PUSH0 REVERT JUMPDEST PUSH0 PUSH1 0xFF DUP3 AND SWAP1 POP SWAP2 SWAP1 POP JUMP JUMPDEST PUSH2 0x390 DUP2 PUSH2 0x37B JUMP JUMPDEST DUP2 EQ PUSH2 0x39A JUMPI PUSH0 PUSH0 REVERT JUMPDEST POP JUMP JUMPDEST PUSH0 DUP2 CALLDATALOAD SWAP1 POP PUSH2 0x3AB DUP2 PUSH2 0x387 JUMP JUMPDEST SWAP3 SWAP2 POP POP JUMP JUMPDEST PUSH0 DUP2 SWAP1 POP SWAP2 SWAP1 POP JUMP JUMPDEST PUSH2 0x3C3 DUP2 PUSH2 0x3B1 JUMP JUMPDEST DUP2 EQ PUSH2 0x3CD JUMPI PUSH0 PUSH0 REVERT JUMPDEST POP JUMP JUMPDEST PUSH0 DUP2 CALLDATALOAD SWAP1 POP PUSH2 0x3DE DUP2 PUSH2 0x3BA JUMP JUMPDEST SWAP3 SWAP2 POP POP JUMP JUMPDEST PUSH0 PUSH0 PUSH0 PUSH0 PUSH0 PUSH1 0xA0 DUP7 DUP9 SUB SLT ISZERO PUSH2 0x3FD JUMPI PUSH2 0x3FC PUSH2 0x377 JUMP JUMPDEST JUMPDEST PUSH0 PUSH2 0x40A DUP9 DUP3 DUP10 ADD PUSH2 0x39D JUMP JUMPDEST SWAP6 POP POP PUSH1 0x20 PUSH2 0x41B DUP9 DUP3 DUP10 ADD PUSH2 0x3D0 JUMP JUMPDEST SWAP5 POP POP PUSH1 0x40 PUSH2 0x42C DUP9 DUP3 DUP10 ADD PUSH2 0x3D0 JUMP JUMPDEST SWAP4 POP POP PUSH1 0x60 PUSH2 0x43D DUP9 DUP3 DUP10 ADD PUSH2 0x3D0 JUMP JUMPDEST SWAP3 POP POP PUSH1 0x80 PUSH2 0x44E DUP9 DUP3 DUP10 ADD PUSH2 0x3D0 JUMP JUMPDEST SWAP2 POP POP SWAP3 SWAP6 POP SWAP3 SWAP6 SWAP1 SWAP4 POP JUMP JUMPDEST PUSH0 DUP2 SWAP1 POP SWAP2 SWAP1 POP JUMP JUMPDEST PUSH2 0x46D DUP2 PUSH2 0x45B JUMP JUMPDEST DUP3 MSTORE POP POP JUMP JUMPDEST PUSH0 PUSH1 0x40 DUP3 ADD SWAP1 POP PUSH2 0x486 PUSH0 DUP4 ADD DUP6 PUSH2 0x464 JUMP JUMPDEST PUSH2 0x493 PUSH1 0x20 DUP4 ADD DUP5 PUSH2 0x464 JUMP JUMPDEST SWAP4 SWAP3 POP POP POP JUMP JUMPDEST PUSH0 DUP2 ISZERO ISZERO SWAP1 POP SWAP2 SWAP1 POP JUMP JUMPDEST PUSH2 0x4AE DUP2 PUSH2 0x49A JUMP JUMPDEST DUP3 MSTORE POP POP JUMP JUMPDEST PUSH0 PUSH1 0x20 DUP3 ADD SWAP1 POP PUSH2 0x4C7 PUSH0 DUP4 ADD DUP5 PUSH2 0x4A5 JUMP JUMPDEST SWAP3 SWAP2 POP POP JUMP JUMPDEST PUSH0 PUSH1 0x20 DUP3 ADD SWAP1 POP PUSH2 0x4E0 PUSH0 DUP4 ADD DUP5 PUSH2 0x464 JUMP JUMPDEST SWAP3 SWAP2 POP POP JUMP JUMPDEST PUSH0 DUP3 DUP3 MSTORE PUSH1 0x20 DUP3 ADD SWAP1 POP SWAP3 SWAP2 POP POP JUMP JUMPDEST PUSH32 0x636F6C64206661696C0000000000000000000000000000000000000000000000 PUSH0 DUP3 ADD MSTORE POP JUMP JUMPDEST PUSH0 PUSH2 0x52A PUSH1 0x9 DUP4 PUSH2 0x4E6 JUMP JUMPDEST SWAP2 POP PUSH2 0x535 DUP3 PUSH2 0x4F6 JUMP JUMPDEST PUSH1 0x20 DUP3 ADD SWAP1 POP SWAP2 SWAP1 POP JUMP JUMPDEST PUSH0 PUSH1 0x20 DUP3 ADD SWAP1 POP DUP2 DUP2 SUB PUSH0 DUP4 ADD MSTORE PUSH2 0x557 DUP2 PUSH2 0x51E JUMP JUMPDEST SWAP1 POP SWAP2 SWAP1 POP JUMP JUMPDEST PUSH32 0x7761726D206661696C0000000000000000000000000000000000000000000000 PUSH0 DUP3 ADD MSTORE POP JUMP JUMPDEST PUSH0 PUSH2 0x592 PUSH1 0x9 DUP4 PUSH2 0x4E6 JUMP JUMPDEST SWAP2 POP PUSH2 0x59D DUP3 PUSH2 0x55E JUMP JUMPDEST PUSH1 0x20 DUP3 ADD SWAP1 POP SWAP2 SWAP1 POP JUMP JUMPDEST PUSH0 PUSH1 0x20 DUP3 ADD SWAP1 POP DUP2 DUP2 SUB PUSH0 DUP4 ADD MSTORE PUSH2 0x5BF DUP2 PUSH2 0x586 JUMP JUMPDEST SWAP1 POP SWAP2 SWAP1 POP JUMP JUMPDEST PUSH32 0x4E487B7100000000000000000000000000000000000000000000000000000000 PUSH0 MSTORE PUSH1 0x12 PUSH1 0x4 MSTORE PUSH1 0x24 PUSH0 REVERT JUMPDEST PUSH32 0x4E487B7100000000000000000000000000000000000000000000000000000000 PUSH0 MSTORE PUSH1 0x11 PUSH1 0x4 MSTORE PUSH1 0x24 PUSH0 REVERT JUMPDEST PUSH0 PUSH2 0x62A DUP3 PUSH2 0x45B JUMP JUMPDEST SWAP2 POP PUSH2 0x635 DUP4 PUSH2 0x45B JUMP JUMPDEST SWAP3 POP DUP3 DUP3 SUB SWAP1 POP DUP2 DUP2 GT ISZERO PUSH2 0x64D JUMPI PUSH2 0x64C PUSH2 0x5F3 JUMP JUMPDEST JUMPDEST SWAP3 SWAP2 POP POP JUMP JUMPDEST PUSH2 0x65C DUP2 PUSH2 0x3B1 JUMP JUMPDEST DUP3 MSTORE POP POP JUMP JUMPDEST PUSH2 0x66B DUP2 PUSH2 0x37B JUMP JUMPDEST DUP3 MSTORE POP POP JUMP JUMPDEST PUSH0 PUSH1 0x80 DUP3 ADD SWAP1 POP PUSH2 0x684 PUSH0 DUP4 ADD DUP8 PUSH2 0x653 JUMP JUMPDEST PUSH2 0x691 PUSH1 0x20 DUP4 ADD DUP7 PUSH2 0x662 JUMP JUMPDEST PUSH2 0x69E PUSH1 0x40 DUP4 ADD DUP6 PUSH2 0x653 JUMP JUMPDEST PUSH2 0x6AB PUSH1 0x60 DUP4 ADD DUP5 PUSH2 0x653 JUMP JUMPDEST SWAP6 SWAP5 POP POP POP POP POP JUMP JUMPDEST PUSH32 0x65637265636F766572206661696C656400000000000000000000000000000000 PUSH0 DUP3 ADD MSTORE POP JUMP JUMPDEST PUSH0 PUSH2 0x6E8 PUSH1 0x10 DUP4 PUSH2 0x4E6 JUMP JUMPDEST SWAP2 POP PUSH2 0x6F3 DUP3 PUSH2 0x6B4 JUMP JUMPDEST PUSH1 0x20 DUP3 ADD SWAP1 POP SWAP2 SWAP1 POP JUMP JUMPDEST PUSH0 PUSH1 0x20 DUP3 ADD SWAP1 POP DUP2 DUP2 SUB PUSH0 DUP4 ADD MSTORE PUSH2 0x715 DUP2 PUSH2 0x6DC JUMP JUMPDEST SWAP1 POP SWAP2 SWAP1 POP JUMP JUMPDEST PUSH0 PUSH20 0xFFFFFFFFFFFFFFFFFFFFFFFFFFFFFFFFFFFFFFFF DUP3 AND SWAP1 POP SWAP2 SWAP1 POP JUMP JUMPDEST PUSH0 PUSH2 0x745 DUP3 PUSH2 0x71C JUMP JUMPDEST SWAP1 POP SWAP2 SWAP1 POP JUMP JUMPDEST PUSH0 DUP2 PUSH1 0x60 SHL SWAP1 POP SWAP2 SWAP1 POP JUMP JUMPDEST PUSH0 PUSH2 0x762 DUP3 PUSH2 0x74C JUMP JUMPDEST SWAP1 POP SWAP2 SWAP1 POP JUMP JUMPDEST PUSH0 PUSH2 0x773 DUP3 PUSH2 0x758 JUMP JUMPDEST SWAP1 POP SWAP2 SWAP1 POP JUMP JUMPDEST PUSH2 0x78B PUSH2 0x786 DUP3 PUSH2 0x73B JUMP JUMPDEST PUSH2 0x769 JUMP JUMPDEST DUP3 MSTORE POP POP JUMP JUMPDEST PUSH0 DUP2 PUSH1 0xF8 SHL SWAP1 POP SWAP2 SWAP1 POP JUMP JUMPDEST PUSH0 PUSH2 0x7A7 DUP3 PUSH2 0x791 JUMP JUMPDEST SWAP1 POP SWAP2 SWAP1 POP JUMP JUMPDEST PUSH2 0x7BF PUSH2 0x7BA DUP3 PUSH2 0x37B JUMP JUMPDEST PUSH2 0x79D JUMP JUMPDEST DUP3 MSTORE POP POP JUMP JUMPDEST PUSH0 DUP2 SWAP1 POP SWAP2 SWAP1 POP JUMP JUMPDEST PUSH2 0x7DF PUSH2 0x7DA DUP3 PUSH2 0x3B1 JUMP JUMPDEST PUSH2 0x7C5 JUMP JUMPDEST DUP3 MSTORE POP POP JUMP JUMPDEST PUSH0 PUSH2 0x7F0 DUP3 DUP8 PUSH2 0x77A JUMP JUMPDEST PUSH1 0x14 DUP3 ADD SWAP2 POP PUSH2 0x800 DUP3 DUP7 PUSH2 0x7AE JUMP JUMPDEST PUSH1 0x1 DUP3 ADD SWAP2 POP PUSH2 0x810 DUP3 DUP6 PUSH2 0x7CE JUMP JUMPDEST PUSH1 0x20 DUP3 ADD SWAP2 POP PUSH2 0x820 DUP3 DUP5 PUSH2 0x7CE JUMP JUMPDEST PUSH1 0x20 DUP3 ADD SWAP2 POP DUP2 SWAP1 POP SWAP6 SWAP5 POP POP POP POP POP JUMP INVALID LOG2 PUSH5 0x6970667358 0x22 SLT KECCAK256 SSTORE 0xC1 0xCA 0xAA CALLDATACOPY CREATE2 SELFBALANCE CODESIZE SWAP8 0xA6 PUSH26 0xB68CC2FA9CAC9F5E09920F97E666AFB34BB783773A64736F6C63 NUMBER STOP ADDMOD SAR STOP CALLER "},"methodIdentifiers":{"Q()":"e493ef8c","measureVerify(uint8,bytes32,bytes32,bytes32,bytes32)":"7821ce4b","verify(uint8,bytes32,bytes32,bytes32,bytes32)":"9186da4c"}}}}}