{"project/contracts/SchnorrSECP256K1.sol":{"SchnorrSECP256K1":{"abi":[{"inputs":[],"name":"HALF_Q","outputs":[{"internalType":"uint256","name":"","type":"uint256"}],"stateMutability":"view","type":"function"},{"inputs":[],"name":"Q","outputs":[{"internalType":"uint256","name":"","type":"uint256"}],"stateMutability":"view","type":"function"},{"inputs":[{"internalType":"uint256","name":"signingPubKeyX","type":"uint256"},{"internalType":"uint8","name":"pubKeyYParity","type":"uint8"},{"internalType":"uint256","name":"signature","type":"uint256"},{"internalType":"uint256","name":"msgHash","type":"uint256"},{"internalType":"address","name":"nonceTimesGeneratorAddress","type":"address"}],"name":"measureVerify","outputs":[{"internalType":"uint256","name":"cold","type":"uint256"},{"internalType":"uint256","name":"warm","type":"uint256"}],"stateMutability":"nonpayable","type":"function"},{"inputs":[{"internalType":"uint256","name":"signingPubKeyX","type":"uint256"},{"internalType":"uint8","name":"pubKeyYParity","type":"uint8"},{"internalType":"uint256","name":"signature","type":"uint256"},{"internalType":"uint256","name":"msgHash","type":"uint256"},{"internalType":"address","name":"nonceTimesGeneratorAddress","type":"address"}],"name":"verifySignature","outputs":[{"internalType":"bool","name":"","type":"bool"}],"stateMutability":"pure","type":"function"}],"evm":{"bytecode":{"linkReferences":{},"object":"6080604052348015600e575f5ffd5b50610ad18061001c5f395ff3fe608060405234801561000f575f5ffd5b506004361061004a575f3560e01c8063081532751461004e5780638efb3bb21461007f578063e493ef8c1461009d578063ff51dff2146100bb575b5f5ffd5b61006860048036038101906100639190610588565b6100eb565b60405161007692919061060e565b60405180910390f35b6100876101a8565b6040516100949190610635565b60405180910390f35b6100a56101db565b6040516100b29190610635565b60405180910390f35b6100d560048036038101906100d09190610588565b6101ff565b6040516100e29190610668565b60405180910390f35b5f5f5f5a90506100fe88888888886101ff565b61013d576040517f08c379a0000000000000000000000000000000000000000000000000000000008152600401610134906106db565b60405180910390fd5b5f5a905061014e89898989896101ff565b61018d576040517f08c379a000000000000000000000000000000000000000000000000000000000815260040161018490610743565b60405180910390fd5b5f5a9050818303945080820393505050509550959350505050565b6001807ffffffffffffffffffffffffffffffffebaaedce6af48a03bbfd25e8cd0364141901c6101d8919061078e565b81565b7ffffffffffffffffffffffffffffffffebaaedce6af48a03bbfd25e8cd036414181565b5f7ffffffffffffffffffffffffffffffffebaaedce6af48a03bbfd25e8cd03641418410610262576040517f08c379a000000000000000000000000000000000000000000000000000000000815260040161025990610831565b60405180910390fd5b5f73ffffffffffffffffffffffffffffffffffffffff168273ffffffffffffffffffffffffffffffffffffffff161415801561029d57505f86115b80156102a857505f84115b80156102b357505f83115b6102f2576040517f08c379a00000000000000000000000000000000000000000000000000000000081526004016102e990610899565b60405180910390fd5b5f8690505f8690506001807ffffffffffffffffffffffffffffffffebaaedce6af48a03bbfd25e8cd0364141901c61032a919061078e565b88111561036f57877ffffffffffffffffffffffffffffffffebaaedce6af48a03bbfd25e8cd036414161035d91906108b7565b915086603761036c91906108ea565b90505b5f8282878760405160200161038794939291906109b7565b604051602081830303815290604052805190602001205f1c90505f60017ffffffffffffffffffffffffffffffffebaaedce6af48a03bbfd25e8cd0364141806103d3576103d2610a04565b5b898c097ffffffffffffffffffffffffffffffffebaaedce6af48a03bbfd25e8cd036414161040191906108b7565b5f1b8a8c5f1b7ffffffffffffffffffffffffffffffffebaaedce6af48a03bbfd25e8cd03641418061043657610435610a04565b5b8e87095f1b6040515f81526020016040526040516104579493929190610a58565b6020604051602081039080840390855afa158015610477573d5f5f3e3d5ffd5b5050506020604051035190508073ffffffffffffffffffffffffffffffffffffffff168673ffffffffffffffffffffffffffffffffffffffff161494505050505095945050505050565b5f5ffd5b5f819050919050565b6104d7816104c5565b81146104e1575f5ffd5b50565b5f813590506104f2816104ce565b92915050565b5f60ff82169050919050565b61050d816104f8565b8114610517575f5ffd5b50565b5f8135905061052881610504565b92915050565b5f73ffffffffffffffffffffffffffffffffffffffff82169050919050565b5f6105578261052e565b9050919050565b6105678161054d565b8114610571575f5ffd5b50565b5f813590506105828161055e565b92915050565b5f5f5f5f5f60a086880312156105a1576105a06104c1565b5b5f6105ae888289016104e4565b95505060206105bf8882890161051a565b94505060406105d0888289016104e4565b93505060606105e1888289016104e4565b92505060806105f288828901610574565b9150509295509295909350565b610608816104c5565b82525050565b5f6040820190506106215f8301856105ff565b61062e60208301846105ff565b9392505050565b5f6020820190506106485f8301846105ff565b92915050565b5f8115159050919050565b6106628161064e565b82525050565b5f60208201905061067b5f830184610659565b92915050565b5f82825260208201905092915050565b7f636f6c64206661696c00000000000000000000000000000000000000000000005f82015250565b5f6106c5600983610681565b91506106d082610691565b602082019050919050565b5f6020820190508181035f8301526106f2816106b9565b9050919050565b7f7761726d206661696c00000000000000000000000000000000000000000000005f82015250565b5f61072d600983610681565b9150610738826106f9565b602082019050919050565b5f6020820190508181035f83015261075a81610721565b9050919050565b7f4e487b71000000000000000000000000000000000000000000000000000000005f52601160045260245ffd5b5f610798826104c5565b91506107a3836104c5565b92508282019050808211156107bb576107ba610761565b5b92915050565b7f7369676e6174757265206d7573742062652072656475636564206d6f64756c6f5f8201527f2051000000000000000000000000000000000000000000000000000000000000602082015250565b5f61081b602283610681565b9150610826826107c1565b604082019050919050565b5f6020820190508181035f8301526108488161080f565b9050919050565b7f6e6f207a65726f20696e7075747320616c6c6f776564000000000000000000005f82015250565b5f610883601683610681565b915061088e8261084f565b602082019050919050565b5f6020820190508181035f8301526108b081610877565b9050919050565b5f6108c1826104c5565b91506108cc836104c5565b92508282039050818111156108e4576108e3610761565b5b92915050565b5f6108f4826104f8565b91506108ff836104f8565b9250828203905060ff81111561091857610917610761565b5b92915050565b5f819050919050565b610938610933826104c5565b61091e565b82525050565b5f8160f81b9050919050565b5f6109548261093e565b9050919050565b61096c610967826104f8565b61094a565b82525050565b5f8160601b9050919050565b5f61098882610972565b9050919050565b5f6109998261097e565b9050919050565b6109b16109ac8261054d565b61098f565b82525050565b5f6109c28287610927565b6020820191506109d2828661095b565b6001820191506109e28285610927565b6020820191506109f282846109a0565b60148201915081905095945050505050565b7f4e487b71000000000000000000000000000000000000000000000000000000005f52601260045260245ffd5b5f819050919050565b610a4381610a31565b82525050565b610a52816104f8565b82525050565b5f608082019050610a6b5f830187610a3a565b610a786020830186610a49565b610a856040830185610a3a565b610a926060830184610a3a565b9594505050505056fea26469706673582212205a17c979a5fe51733c08afee459656cee78ba51e8b4f15eb21fb89c892e92fb664736f6c634300081d0033","opcodes":"PUSH1 0x80 PUSH1 0x40 MSTORE CALLVALUE DUP1 ISZERO PUSH1 0xE JUMPI PUSH0 PUSH0 REVERT JUMPDEST POP PUSH2 0xAD1 DUP1 PUSH2 0x1C PUSH0 CODECOPY PUSH0 RETURN INVALID PUSH1 0x80 PUSH1 0x40 MSTORE CALLVALUE DUP1 ISZERO PUSH2 0xF JUMPI PUSH0 PUSH0 REVERT JUMPDEST POP PUSH1 0x4 CALLDATASIZE LT PUSH2 0x4A JUMPI PUSH0 CALLDATALOAD PUSH1 0xE0 SHR DUP1 PUSH4 0x8153275 EQ PUSH2 0x4E JUMPI DUP1 PUSH4 0x8EFB3BB2 EQ PUSH2 0x7F JUMPI DUP1 PUSH4 0xE493EF8C EQ PUSH2 0x9D JUMPI DUP1 PUSH4 0xFF51DFF2 EQ PUSH2 0xBB JUMPI JUMPDEST PUSH0 PUSH0 REVERT JUMPDEST PUSH2 0x68 PUSH1 0x4 DUP1 CALLDATASIZE SUB DUP2 ADD SWAP1 PUSH2 0x63 SWAP2 SWAP1 PUSH2 0x588 JUMP JUMPDEST PUSH2 0xEB JUMP JUMPDEST PUSH1 0x40 MLOAD PUSH2 0x76 SWAP3 SWAP2 SWAP1 PUSH2 0x60E JUMP JUMPDEST PUSH1 0x40 MLOAD DUP1 SWAP2 SUB SWAP1 RETURN JUMPDEST PUSH2 0x87 PUSH2 0x1A8 JUMP JUMPDEST PUSH1 0x40 MLOAD PUSH2 0x94 SWAP2 SWAP1 PUSH2 0x635 JUMP JUMPDEST PUSH1 0x40 MLOAD DUP1 SWAP2 SUB SWAP1 RETURN JUMPDEST PUSH2 0xA5 PUSH2 0x1DB JUMP JUMPDEST PUSH1 0x40 MLOAD PUSH2 0xB2 SWAP2 SWAP1 PUSH2 0x635 JUMP JUMPDEST PUSH1 0x40 MLOAD DUP1 SWAP2 SUB SWAP1 RETURN JUMPDEST PUSH2 0xD5 PUSH1 0x4 DUP1 CALLDATASIZE SUB DUP2 ADD SWAP1 PUSH2 0xD0 SWAP2 SWAP1 PUSH2 0x588 JUMP JUMPDEST PUSH2 0x1FF JUMP JUMPDEST PUSH1 0x40 MLOAD PUSH2 0xE2 SWAP2 SWAP1 PUSH2 0x668 JUMP JUMPDEST PUSH1 0x40 MLOAD DUP1 SWAP2 SUB SWAP1 RETURN JUMPDEST PUSH0 PUSH0 PUSH0 GAS SWAP1 POP PUSH2 0xFE DUP9 DUP9 DUP9 DUP9 DUP9 PUSH2 0x1FF JUMP JUMPDEST PUSH2 0x13D JUMPI PUSH1 0x40 MLOAD PUSH32 0x8C379A000000000000000000000000000000000000000000000000000000000 DUP2 MSTORE PUSH1 0x4 ADD PUSH2 0x134 SWAP1 PUSH2 0x6DB JUMP JUMPDEST PUSH1 0x40 MLOAD DUP1 SWAP2 SUB SWAP1 REVERT JUMPDEST PUSH0 GAS SWAP1 POP PUSH2 0x14E DUP10 DUP10 DUP10 DUP10 DUP10 PUSH2 0x1FF JUMP JUMPDEST PUSH2 0x18D JUMPI PUSH1 0x40 MLOAD PUSH32 0x8C379A000000000000000000000000000000000000000000000000000000000 DUP2 MSTORE PUSH1 0x4 ADD PUSH2 0x184 SWAP1 PUSH2 0x743 JUMP JUMPDEST PUSH1 0x40 MLOAD DUP1 SWAP2 SUB SWAP1 REVERT JUMPDEST PUSH0 GAS SWAP1 POP DUP2 DUP4 SUB SWAP5 POP DUP1 DUP3 SUB SWAP4 POP POP POP POP SWAP6 POP SWAP6 SWAP4 POP POP POP POP JUMP JUMPDEST PUSH1 0x1 DUP1 PUSH32 0xFFFFFFFFFFFFFFFFFFFFFFFFFFFFFFFEBAAEDCE6AF48A03BBFD25E8CD0364141 SWAP1 SHR PUSH2 0x1D8 SWAP2 SWAP1 PUSH2 0x78E JUMP JUMPDEST DUP2 JUMP JUMPDEST PUSH32 0xFFFFFFFFFFFFFFFFFFFFFFFFFFFFFFFEBAAEDCE6AF48A03BBFD25E8CD0364141 DUP2 JUMP JUMPDEST PUSH0 PUSH32 0xFFFFFFFFFFFFFFFFFFFFFFFFFFFFFFFEBAAEDCE6AF48A03BBFD25E8CD0364141 DUP5 LT PUSH2 0x262 JUMPI PUSH1 0x40 MLOAD PUSH32 0x8C379A000000000000000000000000000000000000000000000000000000000 DUP2 MSTORE PUSH1 0x4 ADD PUSH2 0x259 SWAP1 PUSH2 0x831 JUMP JUMPDEST PUSH1 0x40 MLOAD DUP1 SWAP2 SUB SWAP1 REVERT JUMPDEST PUSH0 PUSH20 0xFFFFFFFFFFFFFFFFFFFFFFFFFFFFFFFFFFFFFFFF AND DUP3 PUSH20 0xFFFFFFFFFFFFFFFFFFFFFFFFFFFFFFFFFFFFFFFF AND EQ ISZERO DUP1 ISZERO PUSH2 0x29D JUMPI POP PUSH0 DUP7 GT JUMPDEST DUP1 ISZERO PUSH2 0x2A8 JUMPI POP PUSH0 DUP5 GT JUMPDEST DUP1 ISZERO PUSH2 0x2B3 JUMPI POP PUSH0 DUP4 GT JUMPDEST PUSH2 0x2F2 JUMPI PUSH1 0x40 MLOAD PUSH32 0x8C379A000000000000000000000000000000000000000000000000000000000 DUP2 MSTORE PUSH1 0x4 ADD PUSH2 0x2E9 SWAP1 PUSH2 0x899 JUMP JUMPDEST PUSH1 0x40 MLOAD DUP1 SWAP2 SUB SWAP1 REVERT JUMPDEST PUSH0 DUP7 SWAP1 POP PUSH0 DUP7 SWAP1 POP PUSH1 0x1 DUP1 PUSH32 0xFFFFFFFFFFFFFFFFFFFFFFFFFFFFFFFEBAAEDCE6AF48A03BBFD25E8CD0364141 SWAP1 SHR PUSH2 0x32A SWAP2 SWAP1 PUSH2 0x78E JUMP JUMPDEST DUP9 GT ISZERO PUSH2 0x36F JUMPI DUP8 PUSH32 0xFFFFFFFFFFFFFFFFFFFFFFFFFFFFFFFEBAAEDCE6AF48A03BBFD25E8CD0364141 PUSH2 0x35D SWAP2 SWAP1 PUSH2 0x8B7 JUMP JUMPDEST SWAP2 POP DUP7 PUSH1 0x37 PUSH2 0x36C SWAP2 SWAP1 PUSH2 0x8EA JUMP JUMPDEST SWAP1 POP JUMPDEST PUSH0 DUP3 DUP3 DUP8 DUP8 PUSH1 0x40 MLOAD PUSH1 0x20 ADD PUSH2 0x387 SWAP5 SWAP4 SWAP3 SWAP2 SWAP1 PUSH2 0x9B7 JUMP JUMPDEST PUSH1 0x40 MLOAD PUSH1 0x20 DUP2 DUP4 SUB SUB DUP2 MSTORE SWAP1 PUSH1 0x40 MSTORE DUP1 MLOAD SWAP1 PUSH1 0x20 ADD KECCAK256 PUSH0 SHR SWAP1 POP PUSH0 PUSH1 0x1 PUSH32 0xFFFFFFFFFFFFFFFFFFFFFFFFFFFFFFFEBAAEDCE6AF48A03BBFD25E8CD0364141 DUP1 PUSH2 0x3D3 JUMPI PUSH2 0x3D2 PUSH2 0xA04 JUMP JUMPDEST JUMPDEST DUP10 DUP13 MULMOD PUSH32 0xFFFFFFFFFFFFFFFFFFFFFFFFFFFFFFFEBAAEDCE6AF48A03BBFD25E8CD0364141 PUSH2 0x401 SWAP2 SWAP1 PUSH2 0x8B7 JUMP JUMPDEST PUSH0 SHL DUP11 DUP13 PUSH0 SHL PUSH32 0xFFFFFFFFFFFFFFFFFFFFFFFFFFFFFFFEBAAEDCE6AF48A03BBFD25E8CD0364141 DUP1 PUSH2 0x436 JUMPI PUSH2 0x435 PUSH2 0xA04 JUMP JUMPDEST JUMPDEST DUP15 DUP8 MULMOD PUSH0 SHL PUSH1 0x40 MLOAD PUSH0 DUP2 MSTORE PUSH1 0x20 ADD PUSH1 0x40 MSTORE PUSH1 0x40 MLOAD PUSH2 0x457 SWAP5 SWAP4 SWAP3 SWAP2 SWAP1 PUSH2 0xA58 JUMP JUMPDEST PUSH1 0x20 PUSH1 0x40 MLOAD PUSH1 0x20 DUP2 SUB SWAP1 DUP1 DUP5 SUB SWAP1 DUP6 GAS STATICCALL ISZERO DUP1 ISZERO PUSH2 0x477 JUMPI RETURNDATASIZE PUSH0 PUSH0 RETURNDATACOPY RETURNDATASIZE PUSH0 REVERT JUMPDEST POP POP POP PUSH1 0x20 PUSH1 0x40 MLOAD SUB MLOAD SWAP1 POP DUP1 PUSH20 0xFFFFFFFFFFFFFFFFFFFFFFFFFFFFFFFFFFFFFFFF AND DUP7 PUSH20 0xFFFFFFFFFFFFFFFFFFFFFFFFFFFFFFFFFFFFFFFF AND EQ SWAP5 POP POP POP POP POP SWAP6 SWAP5 POP POP POP POP POP JUMP JUMPDEST PUSH0 PUSH0 REVERT JUMPDEST PUSH0 DUP2 SWAP1 POP SWAP2 SWAP1 POP JUMP JUMPDEST PUSH2 0x4D7 DUP2 PUSH2 0x4C5 JUMP JUMPDEST DUP2 EQ PUSH2 0x4E1 JUMPI PUSH0 PUSH0 REVERT JUMPDEST POP JUMP JUMPDEST PUSH0 DUP2 CALLDATALOAD SWAP1 POP PUSH2 0x4F2 DUP2 PUSH2 0x4CE JUMP JUMPDEST SWAP3 SWAP2 POP POP JUMP JUMPDEST PUSH0 PUSH1 0xFF DUP3 AND SWAP1 POP SWAP2 SWAP1 POP JUMP JUMPDEST PUSH2 0x50D DUP2 PUSH2 0x4F8 JUMP JUMPDEST DUP2 EQ PUSH2 0x517 JUMPI PUSH0 PUSH0 REVERT JUMPDEST POP JUMP JUMPDEST PUSH0 DUP2 CALLDATALOAD SWAP1 POP PUSH2 0x528 DUP2 PUSH2 0x504 JUMP JUMPDEST SWAP3 SWAP2 POP POP JUMP JUMPDEST PUSH0 PUSH20 0xFFFFFFFFFFFFFFFFFFFFFFFFFFFFFFFFFFFFFFFF DUP3 AND SWAP1 POP SWAP2 SWAP1 POP JUMP JUMPDEST PUSH0 PUSH2 0x557 DUP3 PUSH2 0x52E JUMP JUMPDEST SWAP1 POP SWAP2 SWAP1 POP JUMP JUMPDEST PUSH2 0x567 DUP2 PUSH2 0x54D JUMP JUMPDEST DUP2 EQ PUSH2 0x571 JUMPI PUSH0 PUSH0 REVERT JUMPDEST POP JUMP JUMPDEST PUSH0 DUP2 CALLDATALOAD SWAP1 POP PUSH2 0x582 DUP2 PUSH2 0x55E JUMP JUMPDEST SWAP3 SWAP2 POP POP JUMP JUMPDEST PUSH0 PUSH0 PUSH0 PUSH0 PUSH0 PUSH1 0xA0 DUP7 DUP9 SUB SLT ISZERO PUSH2 0x5A1 JUMPI PUSH2 0x5A0 PUSH2 0x4C1 JUMP JUMPDEST JUMPDEST PUSH0 PUSH2 0x5AE DUP9 DUP3 DUP10 ADD PUSH2 0x4E4 JUMP JUMPDEST SWAP6 POP POP PUSH1 0x20 PUSH2 0x5BF DUP9 DUP3 DUP10 ADD PUSH2 0x51A JUMP JUMPDEST SWAP5 POP POP PUSH1 0x40 PUSH2 0x5D0 DUP9 DUP3 DUP10 ADD PUSH2 0x4E4 JUMP JUMPDEST SWAP4 POP POP PUSH1 0x60 PUSH2 0x5E1 DUP9 DUP3 DUP10 ADD PUSH2 0x4E4 JUMP JUMPDEST SWAP3 POP POP PUSH1 0x80 PUSH2 0x5F2 DUP9 DUP3 DUP10 ADD PUSH2 0x574 JUMP JUMPDEST SWAP2 POP POP SWAP3 SWAP6 POP SWAP3 SWAP6 SWAP1 SWAP4 POP JUMP JUMPDEST PUSH2 0x608 DUP2 PUSH2 0x4C5 JUMP JUMPDEST DUP3 MSTORE POP POP JUMP JUMPDEST PUSH0 PUSH1 0x40 DUP3 ADD SWAP1 POP PUSH2 0x621 PUSH0 DUP4 ADD DUP6 PUSH2 0x5FF JUMP JUMPDEST PUSH2 0x62E PUSH1 0x20 DUP4 ADD DUP5 PUSH2 0x5FF JUMP JUMPDEST SWAP4 SWAP3 POP POP POP JUMP JUMPDEST PUSH0 PUSH1 0x20 DUP3 ADD SWAP1 POP PUSH2 0x648 PUSH0 DUP4 ADD DUP5 PUSH2 0x5FF JUMP JUMPDEST SWAP3 SWAP2 POP POP JUMP JUMPDEST PUSH0 DUP2 ISZERO ISZERO SWAP1 POP SWAP2 SWAP1 POP JUMP JUMPDEST PUSH2 0x662 DUP2 PUSH2 0x64E JUMP JUMPDEST DUP3 MSTORE POP POP JUMP JUMPDEST PUSH0 PUSH1 0x20 DUP3 ADD SWAP1 POP PUSH2 0x67B PUSH0 DUP4 ADD DUP5 PUSH2 0x659 JUMP JUMPDEST SWAP3 SWAP2 POP POP JUMP JUMPDEST PUSH0 DUP3 DUP3 MSTORE PUSH1 0x20 DUP3 ADD SWAP1 POP SWAP3 SWAP2 POP POP JUMP JUMPDEST PUSH32 0x636F6C64206661696C0000000000000000000000000000000000000000000000 PUSH0 DUP3 ADD MSTORE POP JUMP JUMPDEST PUSH0 PUSH2 0x6C5 PUSH1 0x9 DUP4 PUSH2 0x681 JUMP JUMPDEST SWAP2 POP PUSH2 0x6D0 DUP3 PUSH2 0x691 JUMP JUMPDEST PUSH1 0x20 DUP3 ADD SWAP1 POP SWAP2 SWAP1 POP JUMP JUMPDEST PUSH0 PUSH1 0x20 DUP3 ADD SWAP1 POP DUP2 DUP2 SUB PUSH0 DUP4 ADD MSTORE PUSH2 0x6F2 DUP2 PUSH2 0x6B9 JUMP JUMPDEST SWAP1 POP SWAP2 SWAP1 POP JUMP JUMPDEST PUSH32 0x7761726D206661696C0000000000000000000000000000000000000000000000 PUSH0 DUP3 ADD MSTORE POP JUMP JUMPDEST PUSH0 PUSH2 0x72D PUSH1 0x9 DUP4 PUSH2 0x681 JUMP JUMPDEST SWAP2 POP PUSH2 0x738 DUP3 PUSH2 0x6F9 JUMP JUMPDEST PUSH1 0x20 DUP3 ADD SWAP1 POP SWAP2 SWAP1 POP JUMP JUMPDEST PUSH0 PUSH1 0x20 DUP3 ADD SWAP1 POP DUP2 DUP2 SUB PUSH0 DUP4 ADD MSTORE PUSH2 0x75A DUP2 PUSH2 0x721 JUMP JUMPDEST SWAP1 POP SWAP2 SWAP1 POP JUMP JUMPDEST PUSH32 0x4E487B7100000000000000000000000000000000000000000000000000000000 PUSH0 MSTORE PUSH1 0x11 PUSH1 0x4 MSTORE PUSH1 0x24 PUSH0 REVERT JUMPDEST PUSH0 PUSH2 0x798 DUP3 PUSH2 0x4C5 JUMP JUMPDEST SWAP2 POP PUSH2 0x7A3 DUP4 PUSH2 0x4C5 JUMP JUMPDEST SWAP3 POP DUP3 DUP3 ADD SWAP1 POP DUP1 DUP3 GT ISZERO PUSH2 0x7BB JUMPI PUSH2 0x7BA PUSH2 0x761 JUMP JUMPDEST JUMPDEST SWAP3 SWAP2 POP POP JUMP JUMPDEST PUSH32 0x7369676E6174757265206D7573742062652072656475636564206D6F64756C6F PUSH0 DUP3 ADD MSTORE PUSH32 0x2051000000000000000000000000000000000000000000000000000000000000 PUSH1 0x20 DUP3 ADD MSTORE POP JUMP JUMPDEST PUSH0 PUSH2 0x81B PUSH1 0x22 DUP4 PUSH2 0x681 JUMP JUMPDEST SWAP2 POP PUSH2 0x826 DUP3 PUSH2 0x7C1 JUMP JUMPDEST PUSH1 0x40 DUP3 ADD SWAP1 POP SWAP2 SWAP1 POP JUMP JUMPDEST PUSH0 PUSH1 0x20 DUP3 ADD SWAP1 POP DUP2 DUP2 SUB PUSH0 DUP4 ADD MSTORE PUSH2 0x848 DUP2 PUSH2 0x80F JUMP JUMPDEST SWAP1 POP SWAP2 SWAP1 POP JUMP JUMPDEST PUSH32 0x6E6F207A65726F20696E7075747320616C6C6F77656400000000000000000000 PUSH0 DUP3 ADD MSTORE POP JUMP JUMPDEST PUSH0 PUSH2 0x883 PUSH1 0x16 DUP4 PUSH2 0x681 JUMP JUMPDEST SWAP2 POP PUSH2 0x88E DUP3 PUSH2 0x84F JUMP JUMPDEST PUSH1 0x20 DUP3 ADD SWAP1 POP SWAP2 SWAP1 POP JUMP JUMPDEST PUSH0 PUSH1 0x20 DUP3 ADD SWAP1 POP DUP2 DUP2 SUB PUSH0 DUP4 ADD MSTORE PUSH2 0x8B0 DUP2 PUSH2 0x877 JUMP JUMPDEST SWAP1 POP SWAP2 SWAP1 POP JUMP JUMPDEST PUSH0 PUSH2 0x8C1 DUP3 PUSH2 0x4C5 JUMP JUMPDEST SWAP2 POP PUSH2 0x8CC DUP4 PUSH2 0x4C5 JUMP JUMPDEST SWAP3 POP DUP3 DUP3 SUB SWAP1 POP DUP2 DUP2 GT ISZERO PUSH2 0x8E4 JUMPI PUSH2 0x8E3 PUSH2 0x761 JUMP JUMPDEST JUMPDEST SWAP3 SWAP2 POP POP JUMP JUMPDEST PUSH0 PUSH2 0x8F4 DUP3 PUSH2 0x4F8 JUMP JUMPDEST SWAP2 POP PUSH2 0x8FF DUP4 PUSH2 0x4F8 JUMP JUMPDEST SWAP3 POP DUP3 DUP3 SUB SWAP1 POP PUSH1 0xFF DUP2 GT ISZERO PUSH2 0x918 JUMPI PUSH2 0x917 PUSH2 0x761 JUMP JUMPDEST JUMPDEST SWAP3 SWAP2 POP POP JUMP JUMPDEST PUSH0 DUP2 SWAP1 POP SWAP2 SWAP1 POP JUMP JUMPDEST PUSH2 0x938 PUSH2 0x933 DUP3 PUSH2 0x4C5 JUMP JUMPDEST PUSH2 0x91E JUMP JUMPDEST DUP3 MSTORE POP POP JUMP JUMPDEST PUSH0 DUP2 PUSH1 0xF8 SHL SWAP1 POP SWAP2 SWAP1 POP JUMP JUMPDEST PUSH0 PUSH2 0x954 DUP3 PUSH2 0x93E JUMP JUMPDEST SWAP1 POP SWAP2 SWAP1 POP JUMP JUMPDEST PUSH2 0x96C PUSH2 0x967 DUP3 PUSH2 0x4F8 JUMP JUMPDEST PUSH2 0x94A JUMP JUMPDEST DUP3 MSTORE POP POP JUMP JUMPDEST PUSH0 DUP2 PUSH1 0x60 SHL SWAP1 POP SWAP2 SWAP1 POP JUMP JUMPDEST PUSH0 PUSH2 0x988 DUP3 PUSH2 0x972 JUMP JUMPDEST SWAP1 POP SWAP2 SWAP1 POP JUMP JUMPDEST PUSH0 PUSH2 0x999 DUP3 PUSH2 0x97E JUMP JUMPDEST SWAP1 POP SWAP2 SWAP1 POP JUMP JUMPDEST PUSH2 0x9B1 PUSH2 0x9AC DUP3 PUSH2 0x54D JUMP JUMPDEST PUSH2 0x98F JUMP JUMPDEST DUP3 MSTORE POP POP JUMP JUMPDEST PUSH0 PUSH2 0x9C2 DUP3 DUP8 PUSH2 0x927 JUMP JUMPDEST PUSH1 0x20 DUP3 ADD SWAP2 POP PUSH2 0x9D2 DUP3 DUP7 PUSH2 0x95B JUMP JUMPDEST PUSH1 0x1 DUP3 ADD SWAP2 POP PUSH2 0x9E2 DUP3 DUP6 PUSH2 0x927 JUMP JUMPDEST PUSH1 0x20 DUP3 ADD SWAP2 POP PUSH2 0x9F2 DUP3 DUP5 PUSH2 0x9A0 JUMP JUMPDEST PUSH1 0x14 DUP3 ADD SWAP2 POP DUP2 SWAP1 POP SWAP6 SWAP5 POP POP POP POP POP JUMP JUMPDEST PUSH32 0x4E487B7100000000000000000000000000000000000000000000000000000000 PUSH0 MSTORE PUSH1 0x12 PUSH1 0x4 MSTORE PUSH1 0x24 PUSH0 REVERT JUMPDEST PUSH0 DUP2 SWAP1 POP SWAP2 SWAP1 POP JUMP JUMPDEST PUSH2 0xA43 DUP2 PUSH2 0xA31 JUMP JUMPDEST DUP3 MSTORE POP POP JUMP JUMPDEST PUSH2 0xA52 DUP2 PUSH2 0x4F8 JUMP JUMPDEST DUP3 MSTORE POP POP JUMP JUMPDEST PUSH0 PUSH1 0x80 DUP3 ADD SWAP1 POP PUSH2 0xA6B PUSH0 DUP4 ADD DUP8 PUSH2 0xA3A JUMP JUMPDEST PUSH2 0xA78 PUSH1 0x20 DUP4 ADD DUP7 PUSH2 0xA49 JUMP JUMPDEST PUSH2 0xA85 PUSH1 0x40 DUP4 ADD DUP6 PUSH2 0xA3A JUMP JUMPDEST PUSH2 0xA92 PUSH1 0x60 DUP4 ADD DUP5 PUSH2 0xA3A JUMP JUMPDEST SWAP6 SWAP5 POP POP POP POP POP JUMP INVALID LOG2 PUSH5 0x6970667358 0x22 SLT KECCAK256 GAS OR 0xC9 PUSH26 0xA5FE51733C08AFEE459656CEE78BA51E8B4F15EB21FB89C892E9 0x2F 0xB6 PUSH5 0x736F6C6343 STOP ADDMOD SAR STOP CALLER "},"methodIdentifiers":{"HALF_Q()":"8efb3bb2","Q()":"e493ef8c","measureVerify(uint256,uint8,uint256,uint256,address)":"08153275","verifySignature(uint256,uint8,uint256,uint256,address)":"ff51dff2"}}}}}