{"project/contracts/Frost.sol":{"Frost":{"abi":[{"inputs":[{"internalType":"bytes32","name":"message","type":"bytes32"},{"internalType":"uint256","name":"px","type":"uint256"},{"internalType":"uint256","name":"py","type":"uint256"},{"internalType":"uint256","name":"rx","type":"uint256"},{"internalType":"uint256","name":"ry","type":"uint256"},{"internalType":"uint256","name":"z","type":"uint256"}],"name":"measureVerify","outputs":[{"internalType":"uint256","name":"cold","type":"uint256"},{"internalType":"uint256","name":"warm","type":"uint256"}],"stateMutability":"view","type":"function"},{"inputs":[{"internalType":"bytes32","name":"message","type":"bytes32"},{"internalType":"uint256","name":"px","type":"uint256"},{"internalType":"uint256","name":"py","type":"uint256"},{"internalType":"uint256","name":"rx","type":"uint256"},{"internalType":"uint256","name":"ry","type":"uint256"},{"internalType":"uint256","name":"z","type":"uint256"}],"name":"verify","outputs":[{"internalType":"address","name":"signer","type":"address"}],"stateMutability":"view","type":"function"}],"evm":{"bytecode":{"linkReferences":{},"object":"6080604052348015600e575f5ffd5b5061080c8061001c5f395ff3fe608060405234801561000f575f5ffd5b5060043610610034575f3560e01c806351c39d5614610038578063ca6eee2614610069575b5f5ffd5b610052600480360381019061004d9190610692565b610099565b60405161006092919061072a565b60405180910390f35b610083600480360381019061007e9190610692565b6100dd565b6040516100909190610790565b60405180910390f35b5f5f5f5a90506100ad8989898989896100dd565b505f5a90506100c08a8a8a8a8a8a6100dd565b505f5a905081830394508082039350505050965096945050505050565b5f5f6100e98787610190565b90505f6100f68686610251565b90505f61010285610312565b90505f818316841690508061011d575f945050505050610186565b505050505f61012f858589898c610341565b90505f61015e86867ffffffffffffffffffffffffffffffffffffffffffffffffffffffffefffffc2f03610398565b90505f61016d858a8a866103c2565b90506101798989610398565b9350808214840293505050505b9695505050505050565b5f7ffffffffffffffffffffffffffffffffffffffffffffffffffffffffefffffc2f82107ffffffffffffffffffffffffffffffffebaaedce6af48a03bbfd25e8cd03641418410167ffffffffffffffffffffffffffffffffffffffffffffffffffffffffefffffc2f60077ffffffffffffffffffffffffffffffffffffffffffffffffffffffffefffffc2f808788098709087ffffffffffffffffffffffffffffffffffffffffffffffffffffffffefffffc2f8485091416905092915050565b5f7ffffffffffffffffffffffffffffffffffffffffffffffffffffffffefffffc2f82107ffffffffffffffffffffffffffffffffffffffffffffffffffffffffefffffc2f8410167ffffffffffffffffffffffffffffffffffffffffffffffffffffffffefffffc2f60077ffffffffffffffffffffffffffffffffffffffffffffffffffffffffefffffc2f808788098709087ffffffffffffffffffffffffffffffffffffffffffffffffffffffffefffffc2f8485091416905092915050565b5f7ffffffffffffffffffffffffffffffffebaaedce6af48a03bbfd25e8cd036414182105f8311169050919050565b5f61038d610352878787878761043f565b6040518060400160405280601d81526020017f46524f53542d736563703235366b312d5348413235362d76316368616c0000008152506104c4565b905095945050505050565b5f825f528160205273ffffffffffffffffffffffffffffffffffffffff60405f2016905092915050565b5f6040517ffffffffffffffffffffffffffffffffebaaedce6af48a03bbfd25e8cd03641418587098152601b600185160160208201528460408201527ffffffffffffffffffffffffffffffffebaaedce6af48a03bbfd25e8cd0364141858409606082015260205f60808360015afa5f5102915050949350505050565b6060606267ffffffffffffffff81111561045c5761045b6107a9565b5b6040519080825280601f01601f19166020018201604052801561048e5781602001600182028036833780820191505090505b50905060018516600201602082015385602182015260018316600201604182015383604282015281606282015295945050505050565b5f5f6104d284846030610543565b90507ffffffffffffffffffffffffffffffffebaaedce6af48a03bbfd25e8cd036414170010000000000000000000000000000000060208301510991507ffffffffffffffffffffffffffffffffebaaedce6af48a03bbfd25e8cd0364141604082015160801c830891505092915050565b6060604051905061ffe082603f01168101604052818152604051805f81526020810190505f8152602081019050855160208701825e8551810190508360f01b81526003810190506021810360018203865160208801845e865183019250865183536001830192508183036020838686038760025afa6105c0575f5ffd5b8251600183536020808801838660025afa6105d9575f5ffd5b60025b602089111561061a578060051b8801602081035183188652818553602081858860025afa610608575f5ffd5b506001810190506020890398506105dc565b505050505050509392505050565b5f5ffd5b5f819050919050565b61063e8161062c565b8114610648575f5ffd5b50565b5f8135905061065981610635565b92915050565b5f819050919050565b6106718161065f565b811461067b575f5ffd5b50565b5f8135905061068c81610668565b92915050565b5f5f5f5f5f5f60c087890312156106ac576106ab610628565b5b5f6106b989828a0161064b565b96505060206106ca89828a0161067e565b95505060406106db89828a0161067e565b94505060606106ec89828a0161067e565b93505060806106fd89828a0161067e565b92505060a061070e89828a0161067e565b9150509295509295509295565b6107248161065f565b82525050565b5f60408201905061073d5f83018561071b565b61074a602083018461071b565b9392505050565b5f73ffffffffffffffffffffffffffffffffffffffff82169050919050565b5f61077a82610751565b9050919050565b61078a81610770565b82525050565b5f6020820190506107a35f830184610781565b92915050565b7f4e487b71000000000000000000000000000000000000000000000000000000005f52604160045260245ffdfea2646970667358221220302016b0ebfa442534f88a468d700282dce67046aefbdba7ac7663d54d2bfd1664736f6c634300081d0033","opcodes":"PUSH1 0x80 PUSH1 0x40 MSTORE CALLVALUE DUP1 ISZERO PUSH1 0xE JUMPI PUSH0 PUSH0 REVERT JUMPDEST POP PUSH2 0x80C DUP1 PUSH2 0x1C PUSH0 CODECOPY PUSH0 RETURN INVALID PUSH1 0x80 PUSH1 0x40 MSTORE CALLVALUE DUP1 ISZERO PUSH2 0xF JUMPI PUSH0 PUSH0 REVERT JUMPDEST POP PUSH1 0x4 CALLDATASIZE LT PUSH2 0x34 JUMPI PUSH0 CALLDATALOAD PUSH1 0xE0 SHR DUP1 PUSH4 0x51C39D56 EQ PUSH2 0x38 JUMPI DUP1 PUSH4 0xCA6EEE26 EQ PUSH2 0x69 JUMPI JUMPDEST PUSH0 PUSH0 REVERT JUMPDEST PUSH2 0x52 PUSH1 0x4 DUP1 CALLDATASIZE SUB DUP2 ADD SWAP1 PUSH2 0x4D SWAP2 SWAP1 PUSH2 0x692 JUMP JUMPDEST PUSH2 0x99 JUMP JUMPDEST PUSH1 0x40 MLOAD PUSH2 0x60 SWAP3 SWAP2 SWAP1 PUSH2 0x72A JUMP JUMPDEST PUSH1 0x40 MLOAD DUP1 SWAP2 SUB SWAP1 RETURN JUMPDEST PUSH2 0x83 PUSH1 0x4 DUP1 CALLDATASIZE SUB DUP2 ADD SWAP1 PUSH2 0x7E SWAP2 SWAP1 PUSH2 0x692 JUMP JUMPDEST PUSH2 0xDD JUMP JUMPDEST PUSH1 0x40 MLOAD PUSH2 0x90 SWAP2 SWAP1 PUSH2 0x790 JUMP JUMPDEST PUSH1 0x40 MLOAD DUP1 SWAP2 SUB SWAP1 RETURN JUMPDEST PUSH0 PUSH0 PUSH0 GAS SWAP1 POP PUSH2 0xAD DUP10 DUP10 DUP10 DUP10 DUP10 DUP10 PUSH2 0xDD JUMP JUMPDEST POP PUSH0 GAS SWAP1 POP PUSH2 0xC0 DUP11 DUP11 DUP11 DUP11 DUP11 DUP11 PUSH2 0xDD JUMP JUMPDEST POP PUSH0 GAS SWAP1 POP DUP2 DUP4 SUB SWAP5 POP DUP1 DUP3 SUB SWAP4 POP POP POP POP SWAP7 POP SWAP7 SWAP5 POP POP POP POP POP JUMP JUMPDEST PUSH0 PUSH0 PUSH2 0xE9 DUP8 DUP8 PUSH2 0x190 JUMP JUMPDEST SWAP1 POP PUSH0 PUSH2 0xF6 DUP7 DUP7 PUSH2 0x251 JUMP JUMPDEST SWAP1 POP PUSH0 PUSH2 0x102 DUP6 PUSH2 0x312 JUMP JUMPDEST SWAP1 POP PUSH0 DUP2 DUP4 AND DUP5 AND SWAP1 POP DUP1 PUSH2 0x11D JUMPI PUSH0 SWAP5 POP POP POP POP POP PUSH2 0x186 JUMP JUMPDEST POP POP POP POP PUSH0 PUSH2 0x12F DUP6 DUP6 DUP10 DUP10 DUP13 PUSH2 0x341 JUMP JUMPDEST SWAP1 POP PUSH0 PUSH2 0x15E DUP7 DUP7 PUSH32 0xFFFFFFFFFFFFFFFFFFFFFFFFFFFFFFFFFFFFFFFFFFFFFFFFFFFFFFFEFFFFFC2F SUB PUSH2 0x398 JUMP JUMPDEST SWAP1 POP PUSH0 PUSH2 0x16D DUP6 DUP11 DUP11 DUP7 PUSH2 0x3C2 JUMP JUMPDEST SWAP1 POP PUSH2 0x179 DUP10 DUP10 PUSH2 0x398 JUMP JUMPDEST SWAP4 POP DUP1 DUP3 EQ DUP5 MUL SWAP4 POP POP POP POP JUMPDEST SWAP7 SWAP6 POP POP POP POP POP POP JUMP JUMPDEST PUSH0 PUSH32 0xFFFFFFFFFFFFFFFFFFFFFFFFFFFFFFFFFFFFFFFFFFFFFFFFFFFFFFFEFFFFFC2F DUP3 LT PUSH32 0xFFFFFFFFFFFFFFFFFFFFFFFFFFFFFFFEBAAEDCE6AF48A03BBFD25E8CD0364141 DUP5 LT AND PUSH32 0xFFFFFFFFFFFFFFFFFFFFFFFFFFFFFFFFFFFFFFFFFFFFFFFFFFFFFFFEFFFFFC2F PUSH1 0x7 PUSH32 0xFFFFFFFFFFFFFFFFFFFFFFFFFFFFFFFFFFFFFFFFFFFFFFFFFFFFFFFEFFFFFC2F DUP1 DUP8 DUP9 MULMOD DUP8 MULMOD ADDMOD PUSH32 0xFFFFFFFFFFFFFFFFFFFFFFFFFFFFFFFFFFFFFFFFFFFFFFFFFFFFFFFEFFFFFC2F DUP5 DUP6 MULMOD EQ AND SWAP1 POP SWAP3 SWAP2 POP POP JUMP JUMPDEST PUSH0 PUSH32 0xFFFFFFFFFFFFFFFFFFFFFFFFFFFFFFFFFFFFFFFFFFFFFFFFFFFFFFFEFFFFFC2F DUP3 LT PUSH32 0xFFFFFFFFFFFFFFFFFFFFFFFFFFFFFFFFFFFFFFFFFFFFFFFFFFFFFFFEFFFFFC2F DUP5 LT AND PUSH32 0xFFFFFFFFFFFFFFFFFFFFFFFFFFFFFFFFFFFFFFFFFFFFFFFFFFFFFFFEFFFFFC2F PUSH1 0x7 PUSH32 0xFFFFFFFFFFFFFFFFFFFFFFFFFFFFFFFFFFFFFFFFFFFFFFFFFFFFFFFEFFFFFC2F DUP1 DUP8 DUP9 MULMOD DUP8 MULMOD ADDMOD PUSH32 0xFFFFFFFFFFFFFFFFFFFFFFFFFFFFFFFFFFFFFFFFFFFFFFFFFFFFFFFEFFFFFC2F DUP5 DUP6 MULMOD EQ AND SWAP1 POP SWAP3 SWAP2 POP POP JUMP JUMPDEST PUSH0 PUSH32 0xFFFFFFFFFFFFFFFFFFFFFFFFFFFFFFFEBAAEDCE6AF48A03BBFD25E8CD0364141 DUP3 LT PUSH0 DUP4 GT AND SWAP1 POP SWAP2 SWAP1 POP JUMP JUMPDEST PUSH0 PUSH2 0x38D PUSH2 0x352 DUP8 DUP8 DUP8 DUP8 DUP8 PUSH2 0x43F JUMP JUMPDEST PUSH1 0x40 MLOAD DUP1 PUSH1 0x40 ADD PUSH1 0x40 MSTORE DUP1 PUSH1 0x1D DUP2 MSTORE PUSH1 0x20 ADD PUSH32 0x46524F53542D736563703235366B312D5348413235362D76316368616C000000 DUP2 MSTORE POP PUSH2 0x4C4 JUMP JUMPDEST SWAP1 POP SWAP6 SWAP5 POP POP POP POP POP JUMP JUMPDEST PUSH0 DUP3 PUSH0 MSTORE DUP2 PUSH1 0x20 MSTORE PUSH20 0xFFFFFFFFFFFFFFFFFFFFFFFFFFFFFFFFFFFFFFFF PUSH1 0x40 PUSH0 KECCAK256 AND SWAP1 POP SWAP3 SWAP2 POP POP JUMP JUMPDEST PUSH0 PUSH1 0x40 MLOAD PUSH32 0xFFFFFFFFFFFFFFFFFFFFFFFFFFFFFFFEBAAEDCE6AF48A03BBFD25E8CD0364141 DUP6 DUP8 MULMOD DUP2 MSTORE PUSH1 0x1B PUSH1 0x1 DUP6 AND ADD PUSH1 0x20 DUP3 ADD MSTORE DUP5 PUSH1 0x40 DUP3 ADD MSTORE PUSH32 0xFFFFFFFFFFFFFFFFFFFFFFFFFFFFFFFEBAAEDCE6AF48A03BBFD25E8CD0364141 DUP6 DUP5 MULMOD PUSH1 0x60 DUP3 ADD MSTORE PUSH1 0x20 PUSH0 PUSH1 0x80 DUP4 PUSH1 0x1 GAS STATICCALL PUSH0 MLOAD MUL SWAP2 POP POP SWAP5 SWAP4 POP POP POP POP JUMP JUMPDEST PUSH1 0x60 PUSH1 0x62 PUSH8 0xFFFFFFFFFFFFFFFF DUP2 GT ISZERO PUSH2 0x45C JUMPI PUSH2 0x45B PUSH2 0x7A9 JUMP JUMPDEST JUMPDEST PUSH1 0x40 MLOAD SWAP1 DUP1 DUP3 MSTORE DUP1 PUSH1 0x1F ADD PUSH1 0x1F NOT AND PUSH1 0x20 ADD DUP3 ADD PUSH1 0x40 MSTORE DUP1 ISZERO PUSH2 0x48E JUMPI DUP2 PUSH1 0x20 ADD PUSH1 0x1 DUP3 MUL DUP1 CALLDATASIZE DUP4 CALLDATACOPY DUP1 DUP3 ADD SWAP2 POP POP SWAP1 POP JUMPDEST POP SWAP1 POP PUSH1 0x1 DUP6 AND PUSH1 0x2 ADD PUSH1 0x20 DUP3 ADD MSTORE8 DUP6 PUSH1 0x21 DUP3 ADD MSTORE PUSH1 0x1 DUP4 AND PUSH1 0x2 ADD PUSH1 0x41 DUP3 ADD MSTORE8 DUP4 PUSH1 0x42 DUP3 ADD MSTORE DUP2 PUSH1 0x62 DUP3 ADD MSTORE SWAP6 SWAP5 POP POP POP POP POP JUMP JUMPDEST PUSH0 PUSH0 PUSH2 0x4D2 DUP5 DUP5 PUSH1 0x30 PUSH2 0x543 JUMP JUMPDEST SWAP1 POP PUSH32 0xFFFFFFFFFFFFFFFFFFFFFFFFFFFFFFFEBAAEDCE6AF48A03BBFD25E8CD0364141 PUSH17 0x100000000000000000000000000000000 PUSH1 0x20 DUP4 ADD MLOAD MULMOD SWAP2 POP PUSH32 0xFFFFFFFFFFFFFFFFFFFFFFFFFFFFFFFEBAAEDCE6AF48A03BBFD25E8CD0364141 PUSH1 0x40 DUP3 ADD MLOAD PUSH1 0x80 SHR DUP4 ADDMOD SWAP2 POP POP SWAP3 SWAP2 POP POP JUMP JUMPDEST PUSH1 0x60 PUSH1 0x40 MLOAD SWAP1 POP PUSH2 0xFFE0 DUP3 PUSH1 0x3F ADD AND DUP2 ADD PUSH1 0x40 MSTORE DUP2 DUP2 MSTORE PUSH1 0x40 MLOAD DUP1 PUSH0 DUP2 MSTORE PUSH1 0x20 DUP2 ADD SWAP1 POP PUSH0 DUP2 MSTORE PUSH1 0x20 DUP2 ADD SWAP1 POP DUP6 MLOAD PUSH1 0x20 DUP8 ADD DUP3 MCOPY DUP6 MLOAD DUP2 ADD SWAP1 POP DUP4 PUSH1 0xF0 SHL DUP2 MSTORE PUSH1 0x3 DUP2 ADD SWAP1 POP PUSH1 0x21 DUP2 SUB PUSH1 0x1 DUP3 SUB DUP7 MLOAD PUSH1 0x20 DUP9 ADD DUP5 MCOPY DUP7 MLOAD DUP4 ADD SWAP3 POP DUP7 MLOAD DUP4 MSTORE8 PUSH1 0x1 DUP4 ADD SWAP3 POP DUP2 DUP4 SUB PUSH1 0x20 DUP4 DUP7 DUP7 SUB DUP8 PUSH1 0x2 GAS STATICCALL PUSH2 0x5C0 JUMPI PUSH0 PUSH0 REVERT JUMPDEST DUP3 MLOAD PUSH1 0x1 DUP4 MSTORE8 PUSH1 0x20 DUP1 DUP9 ADD DUP4 DUP7 PUSH1 0x2 GAS STATICCALL PUSH2 0x5D9 JUMPI PUSH0 PUSH0 REVERT JUMPDEST PUSH1 0x2 JUMPDEST PUSH1 0x20 DUP10 GT ISZERO PUSH2 0x61A JUMPI DUP1 PUSH1 0x5 SHL DUP9 ADD PUSH1 0x20 DUP2 SUB MLOAD DUP4 XOR DUP7 MSTORE DUP2 DUP6 MSTORE8 PUSH1 0x20 DUP2 DUP6 DUP9 PUSH1 0x2 GAS STATICCALL PUSH2 0x608 JUMPI PUSH0 PUSH0 REVERT JUMPDEST POP PUSH1 0x1 DUP2 ADD SWAP1 POP PUSH1 0x20 DUP10 SUB SWAP9 POP PUSH2 0x5DC JUMP JUMPDEST POP POP POP POP POP POP POP SWAP4 SWAP3 POP POP POP JUMP JUMPDEST PUSH0 PUSH0 REVERT JUMPDEST PUSH0 DUP2 SWAP1 POP SWAP2 SWAP1 POP JUMP JUMPDEST PUSH2 0x63E DUP2 PUSH2 0x62C JUMP JUMPDEST DUP2 EQ PUSH2 0x648 JUMPI PUSH0 PUSH0 REVERT JUMPDEST POP JUMP JUMPDEST PUSH0 DUP2 CALLDATALOAD SWAP1 POP PUSH2 0x659 DUP2 PUSH2 0x635 JUMP JUMPDEST SWAP3 SWAP2 POP POP JUMP JUMPDEST PUSH0 DUP2 SWAP1 POP SWAP2 SWAP1 POP JUMP JUMPDEST PUSH2 0x671 DUP2 PUSH2 0x65F JUMP JUMPDEST DUP2 EQ PUSH2 0x67B JUMPI PUSH0 PUSH0 REVERT JUMPDEST POP JUMP JUMPDEST PUSH0 DUP2 CALLDATALOAD SWAP1 POP PUSH2 0x68C DUP2 PUSH2 0x668 JUMP JUMPDEST SWAP3 SWAP2 POP POP JUMP JUMPDEST PUSH0 PUSH0 PUSH0 PUSH0 PUSH0 PUSH0 PUSH1 0xC0 DUP8 DUP10 SUB SLT ISZERO PUSH2 0x6AC JUMPI PUSH2 0x6AB PUSH2 0x628 JUMP JUMPDEST JUMPDEST PUSH0 PUSH2 0x6B9 DUP10 DUP3 DUP11 ADD PUSH2 0x64B JUMP JUMPDEST SWAP7 POP POP PUSH1 0x20 PUSH2 0x6CA DUP10 DUP3 DUP11 ADD PUSH2 0x67E JUMP JUMPDEST SWAP6 POP POP PUSH1 0x40 PUSH2 0x6DB DUP10 DUP3 DUP11 ADD PUSH2 0x67E JUMP JUMPDEST SWAP5 POP POP PUSH1 0x60 PUSH2 0x6EC DUP10 DUP3 DUP11 ADD PUSH2 0x67E JUMP JUMPDEST SWAP4 POP POP PUSH1 0x80 PUSH2 0x6FD DUP10 DUP3 DUP11 ADD PUSH2 0x67E JUMP JUMPDEST SWAP3 POP POP PUSH1 0xA0 PUSH2 0x70E DUP10 DUP3 DUP11 ADD PUSH2 0x67E JUMP JUMPDEST SWAP2 POP POP SWAP3 SWAP6 POP SWAP3 SWAP6 POP SWAP3 SWAP6 JUMP JUMPDEST PUSH2 0x724 DUP2 PUSH2 0x65F JUMP JUMPDEST DUP3 MSTORE POP POP JUMP JUMPDEST PUSH0 PUSH1 0x40 DUP3 ADD SWAP1 POP PUSH2 0x73D PUSH0 DUP4 ADD DUP6 PUSH2 0x71B JUMP JUMPDEST PUSH2 0x74A PUSH1 0x20 DUP4 ADD DUP5 PUSH2 0x71B JUMP JUMPDEST SWAP4 SWAP3 POP POP POP JUMP JUMPDEST PUSH0 PUSH20 0xFFFFFFFFFFFFFFFFFFFFFFFFFFFFFFFFFFFFFFFF DUP3 AND SWAP1 POP SWAP2 SWAP1 POP JUMP JUMPDEST PUSH0 PUSH2 0x77A DUP3 PUSH2 0x751 JUMP JUMPDEST SWAP1 POP SWAP2 SWAP1 POP JUMP JUMPDEST PUSH2 0x78A DUP2 PUSH2 0x770 JUMP JUMPDEST DUP3 MSTORE POP POP JUMP JUMPDEST PUSH0 PUSH1 0x20 DUP3 ADD SWAP1 POP PUSH2 0x7A3 PUSH0 DUP4 ADD DUP5 PUSH2 0x781 JUMP JUMPDEST SWAP3 SWAP2 POP POP JUMP JUMPDEST PUSH32 0x4E487B7100000000000000000000000000000000000000000000000000000000 PUSH0 MSTORE PUSH1 0x41 PUSH1 0x4 MSTORE PUSH1 0x24 PUSH0 REVERT INVALID LOG2 PUSH5 0x6970667358 0x22 SLT KECCAK256 ADDRESS KECCAK256 AND 0xB0 0xEB STATICCALL PREVRANDAO 0x25 CALLVALUE EXTCALL DUP11 CHAINID DUP14 PUSH17 0x282DCE67046AEFBDBA7AC7663D54D2BFD AND PUSH5 0x736F6C6343 STOP ADDMOD SAR STOP CALLER "},"methodIdentifiers":{"measureVerify(bytes32,uint256,uint256,uint256,uint256,uint256)":"51c39d56","verify(bytes32,uint256,uint256,uint256,uint256,uint256)":"ca6eee26"}}}}}