{
  "_format": "hh3-artifact-1",
  "contractName": "Schnorr",
  "sourceName": "contracts/Schnorr.sol",
  "abi": [
    {
      "inputs": [],
      "name": "Q",
      "outputs": [
        {
          "internalType": "uint256",
          "name": "",
          "type": "uint256"
        }
      ],
      "stateMutability": "view",
      "type": "function"
    },
    {
      "inputs": [
        {
          "internalType": "uint8",
          "name": "parity",
          "type": "uint8"
        },
        {
          "internalType": "bytes32",
          "name": "px",
          "type": "bytes32"
        },
        {
          "internalType": "bytes32",
          "name": "message",
          "type": "bytes32"
        },
        {
          "internalType": "bytes32",
          "name": "e",
          "type": "bytes32"
        },
        {
          "internalType": "bytes32",
          "name": "s",
          "type": "bytes32"
        }
      ],
      "name": "measureVerify",
      "outputs": [
        {
          "internalType": "uint256",
          "name": "cold",
          "type": "uint256"
        },
        {
          "internalType": "uint256",
          "name": "warm",
          "type": "uint256"
        }
      ],
      "stateMutability": "nonpayable",
      "type": "function"
    },
    {
      "inputs": [
        {
          "internalType": "uint8",
          "name": "parity",
          "type": "uint8"
        },
        {
          "internalType": "bytes32",
          "name": "px",
          "type": "bytes32"
        },
        {
          "internalType": "bytes32",
          "name": "message",
          "type": "bytes32"
        },
        {
          "internalType": "bytes32",
          "name": "e",
          "type": "bytes32"
        },
        {
          "internalType": "bytes32",
          "name": "s",
          "type": "bytes32"
        }
      ],
      "name": "verify",
      "outputs": [
        {
          "internalType": "bool",
          "name": "",
          "type": "bool"
        }
      ],
      "stateMutability": "pure",
      "type": "function"
    }
  ],
  "bytecode": "0x6080604052348015600e575f5ffd5b506108688061001c5f395ff3fe608060405234801561000f575f5ffd5b506004361061003f575f3560e01c80637821ce4b146100435780639186da4c14610074578063e493ef8c146100a4575b5f5ffd5b61005d600480360381019061005891906103e4565b6100c2565b60405161006b929190610473565b60405180910390f35b61008e600480360381019061008991906103e4565b61017f565b60405161009b91906104b4565b60405180910390f35b6100ac610353565b6040516100b991906104cd565b60405180910390f35b5f5f5f5a90506100d5888888888861017f565b610114576040517f08c379a000000000000000000000000000000000000000000000000000000000815260040161010b90610540565b60405180910390fd5b5f5a9050610125898989898961017f565b610164576040517f08c379a000000000000000000000000000000000000000000000000000000000815260040161015b906105a8565b60405180910390fd5b5f5a9050818303945080820393505050509550959350505050565b5f5f7ffffffffffffffffffffffffffffffffebaaedce6af48a03bbfd25e8cd0364141806101b0576101af6105c6565b5b865f1c845f1c097ffffffffffffffffffffffffffffffffebaaedce6af48a03bbfd25e8cd03641416101e29190610620565b5f1b90505f7ffffffffffffffffffffffffffffffffebaaedce6af48a03bbfd25e8cd036414180610216576102156105c6565b5b875f1c865f1c097ffffffffffffffffffffffffffffffffebaaedce6af48a03bbfd25e8cd03641416102489190610620565b5f1b90505f5f1b8203610259575f5ffd5b5f6001838a8a856040515f815260200160405260405161027c9493929190610671565b6020604051602081039080840390855afa15801561029c573d5f5f3e3d5ffd5b5050506020604051035190505f73ffffffffffffffffffffffffffffffffffffffff168173ffffffffffffffffffffffffffffffffffffffff1603610316576040517f08c379a000000000000000000000000000000000000000000000000000000000815260040161030d906106fe565b60405180910390fd5b8089898960405160200161032d94939291906107e5565b604051602081830303815290604052805190602001208614935050505095945050505050565b7ffffffffffffffffffffffffffffffffebaaedce6af48a03bbfd25e8cd036414181565b5f5ffd5b5f60ff82169050919050565b6103908161037b565b811461039a575f5ffd5b50565b5f813590506103ab81610387565b92915050565b5f819050919050565b6103c3816103b1565b81146103cd575f5ffd5b50565b5f813590506103de816103ba565b92915050565b5f5f5f5f5f60a086880312156103fd576103fc610377565b5b5f61040a8882890161039d565b955050602061041b888289016103d0565b945050604061042c888289016103d0565b935050606061043d888289016103d0565b925050608061044e888289016103d0565b9150509295509295909350565b5f819050919050565b61046d8161045b565b82525050565b5f6040820190506104865f830185610464565b6104936020830184610464565b9392505050565b5f8115159050919050565b6104ae8161049a565b82525050565b5f6020820190506104c75f8301846104a5565b92915050565b5f6020820190506104e05f830184610464565b92915050565b5f82825260208201905092915050565b7f636f6c64206661696c00000000000000000000000000000000000000000000005f82015250565b5f61052a6009836104e6565b9150610535826104f6565b602082019050919050565b5f6020820190508181035f8301526105578161051e565b9050919050565b7f7761726d206661696c00000000000000000000000000000000000000000000005f82015250565b5f6105926009836104e6565b915061059d8261055e565b602082019050919050565b5f6020820190508181035f8301526105bf81610586565b9050919050565b7f4e487b71000000000000000000000000000000000000000000000000000000005f52601260045260245ffd5b7f4e487b71000000000000000000000000000000000000000000000000000000005f52601160045260245ffd5b5f61062a8261045b565b91506106358361045b565b925082820390508181111561064d5761064c6105f3565b5b92915050565b61065c816103b1565b82525050565b61066b8161037b565b82525050565b5f6080820190506106845f830187610653565b6106916020830186610662565b61069e6040830185610653565b6106ab6060830184610653565b95945050505050565b7f65637265636f766572206661696c6564000000000000000000000000000000005f82015250565b5f6106e86010836104e6565b91506106f3826106b4565b602082019050919050565b5f6020820190508181035f830152610715816106dc565b9050919050565b5f73ffffffffffffffffffffffffffffffffffffffff82169050919050565b5f6107458261071c565b9050919050565b5f8160601b9050919050565b5f6107628261074c565b9050919050565b5f61077382610758565b9050919050565b61078b6107868261073b565b610769565b82525050565b5f8160f81b9050919050565b5f6107a782610791565b9050919050565b6107bf6107ba8261037b565b61079d565b82525050565b5f819050919050565b6107df6107da826103b1565b6107c5565b82525050565b5f6107f0828761077a565b60148201915061080082866107ae565b60018201915061081082856107ce565b60208201915061082082846107ce565b6020820191508190509594505050505056fea264697066735822122055c1caaa37f5473897a679b68cc2fa9cac9f5e09920f97e666afb34bb783773a64736f6c634300081d0033",
  "linkReferences": {},
  "deployedLinkReferences": {},
  "immutableReferences": {},
  "inputSourceName": "project/contracts/Schnorr.sol",
  "buildInfoId": "solc-0_8_29-3542690b297972ec0a3e40ca53c82af6e0e252d2"
}